{
  "contractName": "MultiSigWallet",
  "abi": [
    {
      "constant": true,
      "inputs": [
        {
          "name": "",
          "type": "uint256"
        }
      ],
      "name": "owners",
      "outputs": [
        {
          "name": "",
          "type": "address"
        }
      ],
      "payable": false,
      "stateMutability": "view",
      "type": "function"
    },
    {
      "constant": true,
      "inputs": [
        {
          "name": "",
          "type": "address"
        }
      ],
      "name": "isOwner",
      "outputs": [
        {
          "name": "",
          "type": "bool"
        }
      ],
      "payable": false,
      "stateMutability": "view",
      "type": "function"
    },
    {
      "constant": true,
      "inputs": [
        {
          "name": "",
          "type": "uint256"
        },
        {
          "name": "",
          "type": "address"
        }
      ],
      "name": "confirmations",
      "outputs": [
        {
          "name": "",
          "type": "bool"
        }
      ],
      "payable": false,
      "stateMutability": "view",
      "type": "function"
    },
    {
      "constant": true,
      "inputs": [
        {
          "name": "",
          "type": "uint256"
        }
      ],
      "name": "transactions",
      "outputs": [
        {
          "name": "destination",
          "type": "address"
        },
        {
          "name": "value",
          "type": "uint256"
        },
        {
          "name": "data",
          "type": "bytes"
        },
        {
          "name": "executed",
          "type": "bool"
        }
      ],
      "payable": false,
      "stateMutability": "view",
      "type": "function"
    },
    {
      "constant": true,
      "inputs": [],
      "name": "transactionCount",
      "outputs": [
        {
          "name": "",
          "type": "uint256"
        }
      ],
      "payable": false,
      "stateMutability": "view",
      "type": "function"
    },
    {
      "constant": true,
      "inputs": [],
      "name": "MAX_OWNER_COUNT",
      "outputs": [
        {
          "name": "",
          "type": "uint256"
        }
      ],
      "payable": false,
      "stateMutability": "view",
      "type": "function"
    },
    {
      "constant": true,
      "inputs": [],
      "name": "required",
      "outputs": [
        {
          "name": "",
          "type": "uint256"
        }
      ],
      "payable": false,
      "stateMutability": "view",
      "type": "function"
    },
    {
      "inputs": [
        {
          "name": "_owners",
          "type": "address[]"
        },
        {
          "name": "_required",
          "type": "uint256"
        }
      ],
      "payable": false,
      "stateMutability": "nonpayable",
      "type": "constructor"
    },
    {
      "payable": true,
      "stateMutability": "payable",
      "type": "fallback"
    },
    {
      "anonymous": false,
      "inputs": [
        {
          "indexed": true,
          "name": "sender",
          "type": "address"
        },
        {
          "indexed": true,
          "name": "transactionId",
          "type": "uint256"
        }
      ],
      "name": "Confirmation",
      "type": "event"
    },
    {
      "anonymous": false,
      "inputs": [
        {
          "indexed": true,
          "name": "sender",
          "type": "address"
        },
        {
          "indexed": true,
          "name": "transactionId",
          "type": "uint256"
        }
      ],
      "name": "Revocation",
      "type": "event"
    },
    {
      "anonymous": false,
      "inputs": [
        {
          "indexed": true,
          "name": "transactionId",
          "type": "uint256"
        }
      ],
      "name": "Submission",
      "type": "event"
    },
    {
      "anonymous": false,
      "inputs": [
        {
          "indexed": true,
          "name": "transactionId",
          "type": "uint256"
        }
      ],
      "name": "Execution",
      "type": "event"
    },
    {
      "anonymous": false,
      "inputs": [
        {
          "indexed": true,
          "name": "transactionId",
          "type": "uint256"
        }
      ],
      "name": "ExecutionFailure",
      "type": "event"
    },
    {
      "anonymous": false,
      "inputs": [
        {
          "indexed": true,
          "name": "sender",
          "type": "address"
        },
        {
          "indexed": false,
          "name": "value",
          "type": "uint256"
        }
      ],
      "name": "Deposit",
      "type": "event"
    },
    {
      "anonymous": false,
      "inputs": [
        {
          "indexed": true,
          "name": "to",
          "type": "address"
        },
        {
          "indexed": false,
          "name": "value",
          "type": "uint256"
        }
      ],
      "name": "Withdraw",
      "type": "event"
    },
    {
      "anonymous": false,
      "inputs": [
        {
          "indexed": true,
          "name": "owner",
          "type": "address"
        }
      ],
      "name": "OwnerAddition",
      "type": "event"
    },
    {
      "anonymous": false,
      "inputs": [
        {
          "indexed": true,
          "name": "owner",
          "type": "address"
        }
      ],
      "name": "OwnerRemoval",
      "type": "event"
    },
    {
      "anonymous": false,
      "inputs": [
        {
          "indexed": false,
          "name": "required",
          "type": "uint256"
        }
      ],
      "name": "RequirementChange",
      "type": "event"
    },
    {
      "constant": true,
      "inputs": [],
      "name": "walletBalance",
      "outputs": [
        {
          "name": "",
          "type": "uint256"
        }
      ],
      "payable": false,
      "stateMutability": "view",
      "type": "function"
    },
    {
      "constant": false,
      "inputs": [
        {
          "name": "to",
          "type": "address"
        }
      ],
      "name": "withdraw",
      "outputs": [],
      "payable": false,
      "stateMutability": "nonpayable",
      "type": "function"
    },
    {
      "constant": false,
      "inputs": [
        {
          "name": "owner",
          "type": "address"
        }
      ],
      "name": "addOwner",
      "outputs": [],
      "payable": false,
      "stateMutability": "nonpayable",
      "type": "function"
    },
    {
      "constant": false,
      "inputs": [
        {
          "name": "owner",
          "type": "address"
        }
      ],
      "name": "removeOwner",
      "outputs": [],
      "payable": false,
      "stateMutability": "nonpayable",
      "type": "function"
    },
    {
      "constant": false,
      "inputs": [
        {
          "name": "owner",
          "type": "address"
        },
        {
          "name": "newOwner",
          "type": "address"
        }
      ],
      "name": "replaceOwner",
      "outputs": [],
      "payable": false,
      "stateMutability": "nonpayable",
      "type": "function"
    },
    {
      "constant": false,
      "inputs": [
        {
          "name": "_required",
          "type": "uint256"
        }
      ],
      "name": "changeRequirement",
      "outputs": [],
      "payable": false,
      "stateMutability": "nonpayable",
      "type": "function"
    },
    {
      "constant": false,
      "inputs": [
        {
          "name": "destination",
          "type": "address"
        },
        {
          "name": "value",
          "type": "uint256"
        },
        {
          "name": "data",
          "type": "bytes"
        }
      ],
      "name": "submitTransaction",
      "outputs": [
        {
          "name": "transactionId",
          "type": "uint256"
        }
      ],
      "payable": false,
      "stateMutability": "nonpayable",
      "type": "function"
    },
    {
      "constant": false,
      "inputs": [
        {
          "name": "transactionId",
          "type": "uint256"
        }
      ],
      "name": "confirmTransaction",
      "outputs": [],
      "payable": false,
      "stateMutability": "nonpayable",
      "type": "function"
    },
    {
      "constant": false,
      "inputs": [
        {
          "name": "transactionId",
          "type": "uint256"
        }
      ],
      "name": "revokeConfirmation",
      "outputs": [],
      "payable": false,
      "stateMutability": "nonpayable",
      "type": "function"
    },
    {
      "constant": false,
      "inputs": [
        {
          "name": "transactionId",
          "type": "uint256"
        }
      ],
      "name": "executeTransaction",
      "outputs": [],
      "payable": false,
      "stateMutability": "nonpayable",
      "type": "function"
    },
    {
      "constant": true,
      "inputs": [
        {
          "name": "transactionId",
          "type": "uint256"
        }
      ],
      "name": "isConfirmed",
      "outputs": [
        {
          "name": "",
          "type": "bool"
        }
      ],
      "payable": false,
      "stateMutability": "view",
      "type": "function"
    },
    {
      "constant": true,
      "inputs": [
        {
          "name": "transactionId",
          "type": "uint256"
        }
      ],
      "name": "isExecuted",
      "outputs": [
        {
          "name": "",
          "type": "bool"
        }
      ],
      "payable": false,
      "stateMutability": "view",
      "type": "function"
    },
    {
      "constant": true,
      "inputs": [
        {
          "name": "transactionId",
          "type": "uint256"
        }
      ],
      "name": "getConfirmationCount",
      "outputs": [
        {
          "name": "count",
          "type": "uint256"
        }
      ],
      "payable": false,
      "stateMutability": "view",
      "type": "function"
    },
    {
      "constant": true,
      "inputs": [
        {
          "name": "pending",
          "type": "bool"
        },
        {
          "name": "executed",
          "type": "bool"
        }
      ],
      "name": "getTransactionCount",
      "outputs": [
        {
          "name": "count",
          "type": "uint256"
        }
      ],
      "payable": false,
      "stateMutability": "view",
      "type": "function"
    },
    {
      "constant": true,
      "inputs": [],
      "name": "getOwners",
      "outputs": [
        {
          "name": "",
          "type": "address[]"
        }
      ],
      "payable": false,
      "stateMutability": "view",
      "type": "function"
    },
    {
      "constant": true,
      "inputs": [
        {
          "name": "transactionId",
          "type": "uint256"
        }
      ],
      "name": "getConfirmations",
      "outputs": [
        {
          "name": "_confirmations",
          "type": "address[]"
        }
      ],
      "payable": false,
      "stateMutability": "view",
      "type": "function"
    },
    {
      "constant": true,
      "inputs": [],
      "name": "getPendingTransactionIds",
      "outputs": [
        {
          "name": "",
          "type": "uint256[]"
        }
      ],
      "payable": false,
      "stateMutability": "view",
      "type": "function"
    }
  ],
  "bytecode": "0x60806040523480156200001157600080fd5b50604051620032313803806200323183398101806040528101908080518201929190602001805190602001909291905050506000825182603282111580156200005a5750818111155b801562000068575060008114155b801562000076575060008214155b151562000111576040517f08c379a000000000000000000000000000000000000000000000000000000000815260040180806020018281038252602b8152602001807f4552524f525f494e56414c49445f52455155495245445f434f4e4649524d415481526020017f494f4e535f4e554d42455200000000000000000000000000000000000000000081525060400191505060405180910390fd5b600092505b8451831015620002cb576002600086858151811015156200013357fe5b9060200190602002015173ffffffffffffffffffffffffffffffffffffffff1673ffffffffffffffffffffffffffffffffffffffff16815260200190815260200160002060009054906101000a900460ff16158015620001d85750600073ffffffffffffffffffffffffffffffffffffffff168584815181101515620001b557fe5b9060200190602002015173ffffffffffffffffffffffffffffffffffffffff1614155b15156200024d576040517f08c379a00000000000000000000000000000000000000000000000000000000081526004018080602001828103825260128152602001807f4552524f525f4f574e45525f455849535453000000000000000000000000000081525060200191505060405180910390fd5b60016002600087868151811015156200026257fe5b9060200190602002015173ffffffffffffffffffffffffffffffffffffffff1673ffffffffffffffffffffffffffffffffffffffff16815260200190815260200160002060006101000a81548160ff021916908315150217905550828060010193505062000116565b8460039080519060200190620002e3929190620002f6565b50836004819055505050505050620003cb565b82805482825590600052602060002090810192821562000372579160200282015b82811115620003715782518260006101000a81548173ffffffffffffffffffffffffffffffffffffffff021916908373ffffffffffffffffffffffffffffffffffffffff1602179055509160200191906001019062000317565b5b50905062000381919062000385565b5090565b620003c891905b80821115620003c457600081816101000a81549073ffffffffffffffffffffffffffffffffffffffff0219169055506001016200038c565b5090565b90565b612e5680620003db6000396000f30060806040526004361061013e576000357c0100000000000000000000000000000000000000000000000000000000900463ffffffff168063025e7c2714610198578063173825d91461020557806320ea8d86146102485780632f54bf6e146102755780633411c81c146102d057806339f471611461033557806351cff8d9146103a157806354741525146103e45780637065cb481461043357806376a6bf5214610476578063784547a7146104bb5780638b51d13f146105005780639ace38c214610541578063a0e67e2b1461062c578063b5dc40c314610698578063b77bf6001461071a578063ba51a6df14610745578063c01a8c8414610772578063c64274741461079f578063cd0a314b14610846578063d74f8edd14610871578063dc8452cd1461089c578063e20056e6146108c7578063ee22610b1461092a575b6000341115610196573373ffffffffffffffffffffffffffffffffffffffff167fe1fffcc4923d04b559f4d29a8bfc6cda04eb5b0d3c460751c2402c5c5cc9109c346040518082815260200191505060405180910390a25b005b3480156101a457600080fd5b506101c360048036038101908080359060200190929190505050610957565b604051808273ffffffffffffffffffffffffffffffffffffffff1673ffffffffffffffffffffffffffffffffffffffff16815260200191505060405180910390f35b34801561021157600080fd5b50610246600480360381019080803573ffffffffffffffffffffffffffffffffffffffff169060200190929190505050610995565b005b34801561025457600080fd5b5061027360048036038101908080359060200190929190505050610d00565b005b34801561028157600080fd5b506102b6600480360381019080803573ffffffffffffffffffffffffffffffffffffffff169060200190929190505050610fef565b604051808215151515815260200191505060405180910390f35b3480156102dc57600080fd5b5061031b60048036038101908080359060200190929190803573ffffffffffffffffffffffffffffffffffffffff16906020019092919050505061100f565b604051808215151515815260200191505060405180910390f35b34801561034157600080fd5b5061034a61103e565b6040518080602001828103825283818151815260200191508051906020019060200280838360005b8381101561038d578082015181840152602081019050610372565b505050509050019250505060405180910390f35b3480156103ad57600080fd5b506103e2600480360381019080803573ffffffffffffffffffffffffffffffffffffffff169060200190929190505050611157565b005b3480156103f057600080fd5b5061041d600480360381019080803515159060200190929190803515159060200190929190505050611367565b6040518082815260200191505060405180910390f35b34801561043f57600080fd5b50610474600480360381019080803573ffffffffffffffffffffffffffffffffffffffff1690602001909291905050506113f9565b005b34801561048257600080fd5b506104a1600480360381019080803590602001909291905050506117de565b604051808215151515815260200191505060405180910390f35b3480156104c757600080fd5b506104e66004803603810190808035906020019092919050505061180a565b604051808215151515815260200191505060405180910390f35b34801561050c57600080fd5b5061052b600480360381019080803590602001909291905050506118f3565b6040518082815260200191505060405180910390f35b34801561054d57600080fd5b5061056c600480360381019080803590602001909291905050506119be565b604051808573ffffffffffffffffffffffffffffffffffffffff1673ffffffffffffffffffffffffffffffffffffffff1681526020018481526020018060200183151515158152602001828103825284818151815260200191508051906020019080838360005b838110156105ee5780820151818401526020810190506105d3565b50505050905090810190601f16801561061b5780820380516001836020036101000a031916815260200191505b509550505050505060405180910390f35b34801561063857600080fd5b50610641611ab3565b6040518080602001828103825283818151815260200191508051906020019060200280838360005b83811015610684578082015181840152602081019050610669565b505050509050019250505060405180910390f35b3480156106a457600080fd5b506106c360048036038101908080359060200190929190505050611b41565b6040518080602001828103825283818151815260200191508051906020019060200280838360005b838110156107065780820151818401526020810190506106eb565b505050509050019250505060405180910390f35b34801561072657600080fd5b5061072f611d7e565b6040518082815260200191505060405180910390f35b34801561075157600080fd5b5061077060048036038101908080359060200190929190505050611d84565b005b34801561077e57600080fd5b5061079d60048036038101908080359060200190929190505050611f36565b005b3480156107ab57600080fd5b50610830600480360381019080803573ffffffffffffffffffffffffffffffffffffffff16906020019092919080359060200190929190803590602001908201803590602001908080601f016020809104026020016040519081016040528093929190818152602001838380828437820191505050505050919291929050505061228a565b6040518082815260200191505060405180910390f35b34801561085257600080fd5b5061085b6122a9565b6040518082815260200191505060405180910390f35b34801561087d57600080fd5b506108866122c8565b6040518082815260200191505060405180910390f35b3480156108a857600080fd5b506108b16122cd565b6040518082815260200191505060405180910390f35b3480156108d357600080fd5b50610928600480360381019080803573ffffffffffffffffffffffffffffffffffffffff169060200190929190803573ffffffffffffffffffffffffffffffffffffffff1690602001909291905050506122d3565b005b34801561093657600080fd5b5061095560048036038101908080359060200190929190505050612723565b005b60038181548110151561096657fe5b906000526020600020016000915054906101000a900473ffffffffffffffffffffffffffffffffffffffff1681565b60003073ffffffffffffffffffffffffffffffffffffffff163373ffffffffffffffffffffffffffffffffffffffff16141515610a3a576040517f08c379a00000000000000000000000000000000000000000000000000000000081526004018080602001828103825260128152602001807f4552524f525f4e4f545f415f57414c4c4554000000000000000000000000000081525060200191505060405180910390fd5b81600260008273ffffffffffffffffffffffffffffffffffffffff1673ffffffffffffffffffffffffffffffffffffffff16815260200190815260200160002060009054906101000a900460ff161515610afc576040517f08c379a00000000000000000000000000000000000000000000000000000000081526004018080602001828103825260168152602001807f4552524f525f4f574e45525f4e4f545f4558495354530000000000000000000081525060200191505060405180910390fd5b6000600260008573ffffffffffffffffffffffffffffffffffffffff1673ffffffffffffffffffffffffffffffffffffffff16815260200190815260200160002060006101000a81548160ff021916908315150217905550600091505b600160038054905003821015610c81578273ffffffffffffffffffffffffffffffffffffffff16600383815481101515610b8f57fe5b9060005260206000200160009054906101000a900473ffffffffffffffffffffffffffffffffffffffff1673ffffffffffffffffffffffffffffffffffffffff161415610c74576003600160038054905003815481101515610bed57fe5b9060005260206000200160009054906101000a900473ffffffffffffffffffffffffffffffffffffffff16600383815481101515610c2757fe5b9060005260206000200160006101000a81548173ffffffffffffffffffffffffffffffffffffffff021916908373ffffffffffffffffffffffffffffffffffffffff160217905550610c81565b8180600101925050610b59565b6001600381818054905003915081610c999190612d59565b506003805490506004541115610cb857610cb7600380549050611d84565b5b8273ffffffffffffffffffffffffffffffffffffffff167f8001553a916ef2f495d26a907cc54d96ed840d7bda71e73194bf5a9df7a76b9060405160405180910390a2505050565b33600260008273ffffffffffffffffffffffffffffffffffffffff1673ffffffffffffffffffffffffffffffffffffffff16815260200190815260200160002060009054906101000a900460ff161515610dc2576040517f08c379a00000000000000000000000000000000000000000000000000000000081526004018080602001828103825260168152602001807f4552524f525f4f574e45525f4e4f545f4558495354530000000000000000000081525060200191505060405180910390fd5b81336001600083815260200190815260200160002060008273ffffffffffffffffffffffffffffffffffffffff1673ffffffffffffffffffffffffffffffffffffffff16815260200190815260200160002060009054906101000a900460ff161515610e96576040517f08c379a000000000000000000000000000000000000000000000000000000000815260040180806020018281038252601f8152602001807f4552524f525f5452414e53414354494f4e5f4e4f545f434f4e4649524d45440081525060200191505060405180910390fd5b83610ea0816117de565b151515610f3b576040517f08c379a00000000000000000000000000000000000000000000000000000000081526004018080602001828103825260228152602001807f4552524f525f5452414e53414354494f4e5f414c52454144595f45584543555481526020017f454400000000000000000000000000000000000000000000000000000000000081525060400191505060405180910390fd5b60006001600087815260200190815260200160002060003373ffffffffffffffffffffffffffffffffffffffff1673ffffffffffffffffffffffffffffffffffffffff16815260200190815260200160002060006101000a81548160ff021916908315150217905550843373ffffffffffffffffffffffffffffffffffffffff167ff6a317157440607f36269043eb55f1287a5a19ba2216afeab88cd46cbcfb88e960405160405180910390a35050505050565b60026020528060005260406000206000915054906101000a900460ff1681565b60016020528160005260406000206020528060005260406000206000915091509054906101000a900460ff1681565b60608060606000806005546040519080825280602002602001820160405280156110775781602001602082028038833980820191505090505b50925060009150600090505b6005548110156110cd57611096816117de565b15156110c0578083838151811015156110ab57fe5b90602001906020020181815250506001820191505b8080600101915050611083565b816040519080825280602002602001820160405280156110fc5781602001602082028038833980820191505090505b509350600090505b8181101561114d57828181518110151561111a57fe5b90602001906020020151848281518110151561113257fe5b90602001906020020181815250508080600101915050611104565b8394505050505090565b3073ffffffffffffffffffffffffffffffffffffffff163373ffffffffffffffffffffffffffffffffffffffff161415156111fa576040517f08c379a00000000000000000000000000000000000000000000000000000000081526004018080602001828103825260128152602001807f4552524f525f4e4f545f415f57414c4c4554000000000000000000000000000081525060200191505060405180910390fd5b80600073ffffffffffffffffffffffffffffffffffffffff168173ffffffffffffffffffffffffffffffffffffffff16141515156112a0576040517f08c379a00000000000000000000000000000000000000000000000000000000081526004018080602001828103825260158152602001807f4552524f525f494e56414c49445f41444452455353000000000000000000000081525060200191505060405180910390fd5b8173ffffffffffffffffffffffffffffffffffffffff167f884edad9ce6fa2440d8a54cc123490eb96d2768479d49ff9c7366125a94243643073ffffffffffffffffffffffffffffffffffffffff16316040518082815260200191505060405180910390a28173ffffffffffffffffffffffffffffffffffffffff166108fc3073ffffffffffffffffffffffffffffffffffffffff16319081150290604051600060405180830381858888f19350505050158015611362573d6000803e3d6000fd5b505050565b600080600090505b6005548110156113f2578380156113a6575060008082815260200190815260200160002060030160009054906101000a900460ff16155b806113d957508280156113d8575060008082815260200190815260200160002060030160009054906101000a900460ff165b5b156113e5576001820191505b808060010191505061136f565b5092915050565b3073ffffffffffffffffffffffffffffffffffffffff163373ffffffffffffffffffffffffffffffffffffffff1614151561149c576040517f08c379a00000000000000000000000000000000000000000000000000000000081526004018080602001828103825260128152602001807f4552524f525f4e4f545f415f57414c4c4554000000000000000000000000000081525060200191505060405180910390fd5b80600260008273ffffffffffffffffffffffffffffffffffffffff1673ffffffffffffffffffffffffffffffffffffffff16815260200190815260200160002060009054906101000a900460ff1615151561155f576040517f08c379a00000000000000000000000000000000000000000000000000000000081526004018080602001828103825260128152602001807f4552524f525f4f574e45525f455849535453000000000000000000000000000081525060200191505060405180910390fd5b81600073ffffffffffffffffffffffffffffffffffffffff168173ffffffffffffffffffffffffffffffffffffffff1614151515611605576040517f08c379a00000000000000000000000000000000000000000000000000000000081526004018080602001828103825260158152602001807f4552524f525f494e56414c49445f41444452455353000000000000000000000081525060200191505060405180910390fd5b600160038054905001600454603282111580156116225750818111155b801561162f575060008114155b801561163c575060008214155b15156116d6576040517f08c379a000000000000000000000000000000000000000000000000000000000815260040180806020018281038252602b8152602001807f4552524f525f494e56414c49445f52455155495245445f434f4e4649524d415481526020017f494f4e535f4e554d42455200000000000000000000000000000000000000000081525060400191505060405180910390fd5b6001600260008773ffffffffffffffffffffffffffffffffffffffff1673ffffffffffffffffffffffffffffffffffffffff16815260200190815260200160002060006101000a81548160ff02191690831515021790555060038590806001815401808255809150509060018203906000526020600020016000909192909190916101000a81548173ffffffffffffffffffffffffffffffffffffffff021916908373ffffffffffffffffffffffffffffffffffffffff160217905550508473ffffffffffffffffffffffffffffffffffffffff167ff39e6e1eb0edcf53c221607b54b00cd28f3196fed0a24994dc308b8f611b682d60405160405180910390a25050505050565b600080600083815260200190815260200160002060030160009054906101000a900460ff169050919050565b6000806000809150600090505b6003805490508110156118e75760016000858152602001908152602001600020600060038381548110151561184857fe5b9060005260206000200160009054906101000a900473ffffffffffffffffffffffffffffffffffffffff1673ffffffffffffffffffffffffffffffffffffffff1673ffffffffffffffffffffffffffffffffffffffff16815260200190815260200160002060009054906101000a900460ff16156118c7576001820191505b6004548214156118da57600192506118ec565b8080600101915050611817565b600092505b5050919050565b600080600090505b6003805490508110156119b85760016000848152602001908152602001600020600060038381548110151561192c57fe5b9060005260206000200160009054906101000a900473ffffffffffffffffffffffffffffffffffffffff1673ffffffffffffffffffffffffffffffffffffffff1673ffffffffffffffffffffffffffffffffffffffff16815260200190815260200160002060009054906101000a900460ff16156119ab576001820191505b80806001019150506118fb565b50919050565b60006020528060005260406000206000915090508060000160009054906101000a900473ffffffffffffffffffffffffffffffffffffffff1690806001015490806002018054600181600116156101000203166002900480601f016020809104026020016040519081016040528092919081815260200182805460018160011615610100020316600290048015611a965780601f10611a6b57610100808354040283529160200191611a96565b820191906000526020600020905b815481529060010190602001808311611a7957829003601f168201915b5050505050908060030160009054906101000a900460ff16905084565b60606003805480602002602001604051908101604052809291908181526020018280548015611b3757602002820191906000526020600020905b8160009054906101000a900473ffffffffffffffffffffffffffffffffffffffff1673ffffffffffffffffffffffffffffffffffffffff1681526020019060010190808311611aed575b5050505050905090565b606080600080600380549050604051908082528060200260200182016040528015611b7b5781602001602082028038833980820191505090505b50925060009150600090505b600380549050811015611cc857600160008681526020019081526020016000206000600383815481101515611bb857fe5b9060005260206000200160009054906101000a900473ffffffffffffffffffffffffffffffffffffffff1673ffffffffffffffffffffffffffffffffffffffff1673ffffffffffffffffffffffffffffffffffffffff16815260200190815260200160002060009054906101000a900460ff1615611cbb57600381815481101515611c3f57fe5b9060005260206000200160009054906101000a900473ffffffffffffffffffffffffffffffffffffffff168383815181101515611c7857fe5b9060200190602002019073ffffffffffffffffffffffffffffffffffffffff16908173ffffffffffffffffffffffffffffffffffffffff16815250506001820191505b8080600101915050611b87565b81604051908082528060200260200182016040528015611cf75781602001602082028038833980820191505090505b509350600090505b81811015611d76578281815181101515611d1557fe5b906020019060200201518482815181101515611d2d57fe5b9060200190602002019073ffffffffffffffffffffffffffffffffffffffff16908173ffffffffffffffffffffffffffffffffffffffff16815250508080600101915050611cff565b505050919050565b60055481565b3073ffffffffffffffffffffffffffffffffffffffff163373ffffffffffffffffffffffffffffffffffffffff16141515611e27576040517f08c379a00000000000000000000000000000000000000000000000000000000081526004018080602001828103825260128152602001807f4552524f525f4e4f545f415f57414c4c4554000000000000000000000000000081525060200191505060405180910390fd5b6003805490508160328211158015611e3f5750818111155b8015611e4c575060008114155b8015611e59575060008214155b1515611ef3576040517f08c379a000000000000000000000000000000000000000000000000000000000815260040180806020018281038252602b8152602001807f4552524f525f494e56414c49445f52455155495245445f434f4e4649524d415481526020017f494f4e535f4e554d42455200000000000000000000000000000000000000000081525060400191505060405180910390fd5b826004819055507fa3f1ee9126a074d9326c682f561767f710e927faa811f7a99829d49dc421797a836040518082815260200191505060405180910390a1505050565b33600260008273ffffffffffffffffffffffffffffffffffffffff1673ffffffffffffffffffffffffffffffffffffffff16815260200190815260200160002060009054906101000a900460ff161515611ff8576040517f08c379a00000000000000000000000000000000000000000000000000000000081526004018080602001828103825260168152602001807f4552524f525f4f574e45525f4e4f545f4558495354530000000000000000000081525060200191505060405180910390fd5b81600073ffffffffffffffffffffffffffffffffffffffff1660008083815260200190815260200160002060000160009054906101000a900473ffffffffffffffffffffffffffffffffffffffff1673ffffffffffffffffffffffffffffffffffffffff16141515156120d3576040517f08c379a000000000000000000000000000000000000000000000000000000000815260040180806020018281038252601c8152602001807f4552524f525f5452414e53414354494f4e5f4e4f545f4558495354530000000081525060200191505060405180910390fd5b82336001600083815260200190815260200160002060008273ffffffffffffffffffffffffffffffffffffffff1673ffffffffffffffffffffffffffffffffffffffff16815260200190815260200160002060009054906101000a900460ff161515156121ce576040517f08c379a00000000000000000000000000000000000000000000000000000000081526004018080602001828103825260238152602001807f4552524f525f5452414e53414354494f4e5f414c52454144595f434f4e46495281526020017f4d4544000000000000000000000000000000000000000000000000000000000081525060400191505060405180910390fd5b600180600087815260200190815260200160002060003373ffffffffffffffffffffffffffffffffffffffff1673ffffffffffffffffffffffffffffffffffffffff16815260200190815260200160002060006101000a81548160ff021916908315150217905550843373ffffffffffffffffffffffffffffffffffffffff167f4a504a94899432a9846e1aa406dceb1bcfd538bb839071d49d1e5e23f5be30ef60405160405180910390a361228385612723565b5050505050565b6000612297848484612b61565b90506122a281611f36565b9392505050565b60003073ffffffffffffffffffffffffffffffffffffffff1631905090565b603281565b60045481565b60003073ffffffffffffffffffffffffffffffffffffffff163373ffffffffffffffffffffffffffffffffffffffff16141515612378576040517f08c379a00000000000000000000000000000000000000000000000000000000081526004018080602001828103825260128152602001807f4552524f525f4e4f545f415f57414c4c4554000000000000000000000000000081525060200191505060405180910390fd5b82600260008273ffffffffffffffffffffffffffffffffffffffff1673ffffffffffffffffffffffffffffffffffffffff16815260200190815260200160002060009054906101000a900460ff16151561243a576040517f08c379a00000000000000000000000000000000000000000000000000000000081526004018080602001828103825260168152602001807f4552524f525f4f574e45525f4e4f545f4558495354530000000000000000000081525060200191505060405180910390fd5b82600260008273ffffffffffffffffffffffffffffffffffffffff1673ffffffffffffffffffffffffffffffffffffffff16815260200190815260200160002060009054906101000a900460ff161515156124fd576040517f08c379a00000000000000000000000000000000000000000000000000000000081526004018080602001828103825260128152602001807f4552524f525f4f574e45525f455849535453000000000000000000000000000081525060200191505060405180910390fd5b600092505b6003805490508310156125e6578473ffffffffffffffffffffffffffffffffffffffff1660038481548110151561253557fe5b9060005260206000200160009054906101000a900473ffffffffffffffffffffffffffffffffffffffff1673ffffffffffffffffffffffffffffffffffffffff1614156125d9578360038481548110151561258c57fe5b9060005260206000200160006101000a81548173ffffffffffffffffffffffffffffffffffffffff021916908373ffffffffffffffffffffffffffffffffffffffff1602179055506125e6565b8280600101935050612502565b6000600260008773ffffffffffffffffffffffffffffffffffffffff1673ffffffffffffffffffffffffffffffffffffffff16815260200190815260200160002060006101000a81548160ff0219169083151502179055506001600260008673ffffffffffffffffffffffffffffffffffffffff1673ffffffffffffffffffffffffffffffffffffffff16815260200190815260200160002060006101000a81548160ff0219169083151502179055508473ffffffffffffffffffffffffffffffffffffffff167f8001553a916ef2f495d26a907cc54d96ed840d7bda71e73194bf5a9df7a76b9060405160405180910390a28373ffffffffffffffffffffffffffffffffffffffff167ff39e6e1eb0edcf53c221607b54b00cd28f3196fed0a24994dc308b8f611b682d60405160405180910390a25050505050565b33600260008273ffffffffffffffffffffffffffffffffffffffff1673ffffffffffffffffffffffffffffffffffffffff16815260200190815260200160002060009054906101000a900460ff1615156127e5576040517f08c379a00000000000000000000000000000000000000000000000000000000081526004018080602001828103825260168152602001807f4552524f525f4f574e45525f4e4f545f4558495354530000000000000000000081525060200191505060405180910390fd5b81336001600083815260200190815260200160002060008273ffffffffffffffffffffffffffffffffffffffff1673ffffffffffffffffffffffffffffffffffffffff16815260200190815260200160002060009054906101000a900460ff1615156128b9576040517f08c379a000000000000000000000000000000000000000000000000000000000815260040180806020018281038252601f8152602001807f4552524f525f5452414e53414354494f4e5f4e4f545f434f4e4649524d45440081525060200191505060405180910390fd5b836128c3816117de565b15151561295e576040517f08c379a00000000000000000000000000000000000000000000000000000000081526004018080602001828103825260228152602001807f4552524f525f5452414e53414354494f4e5f414c52454144595f45584543555481526020017f454400000000000000000000000000000000000000000000000000000000000081525060400191505060405180910390fd5b6129678561180a565b15612b5a57600160008087815260200190815260200160002060030160006101000a81548160ff021916908315150217905550612ac660008087815260200190815260200160002060000160009054906101000a900473ffffffffffffffffffffffffffffffffffffffff16600080888152602001908152602001600020600101546000808981526020019081526020016000206002018054600181600116156101000203166002900490506000808a81526020019081526020016000206002018054600181600116156101000203166002900480601f016020809104026020016040519081016040528092919081815260200182805460018160011615610100020316600290048015612abc5780601f10612a9157610100808354040283529160200191612abc565b820191906000526020600020905b815481529060010190602001808311612a9f57829003601f168201915b5050505050612d32565b15612afd57847f33e13ecb54c3076d8e8bb8c2881800a4d972b792045ffae98fdf46df365fed7560405160405180910390a2612b59565b847f526441bb6c1aba3c9a4a6ca1d6545da9c2333c8c48343ef398eb858d72b7923660405160405180910390a2600080600087815260200190815260200160002060030160006101000a81548160ff0219169083151502179055505b5b5050505050565b600083600073ffffffffffffffffffffffffffffffffffffffff168173ffffffffffffffffffffffffffffffffffffffff1614151515612c09576040517f08c379a00000000000000000000000000000000000000000000000000000000081526004018080602001828103825260158152602001807f4552524f525f494e56414c49445f41444452455353000000000000000000000081525060200191505060405180910390fd5b60055491506080604051908101604052808673ffffffffffffffffffffffffffffffffffffffff1681526020018581526020018481526020016000151581525060008084815260200190815260200160002060008201518160000160006101000a81548173ffffffffffffffffffffffffffffffffffffffff021916908373ffffffffffffffffffffffffffffffffffffffff160217905550602082015181600101556040820151816002019080519060200190612cc8929190612d85565b5060608201518160030160006101000a81548160ff0219169083151502179055509050506001600560008282540192505081905550817fc0ba8fe4b176c1714197d43b9cc6bcf797a4a7461c5fe8d0ef6e184ae7601e5160405160405180910390a2509392505050565b6000806040516020840160008287838a8c6187965a03f19250505080915050949350505050565b815481835581811115612d8057818360005260206000209182019101612d7f9190612e05565b5b505050565b828054600181600116156101000203166002900490600052602060002090601f016020900481019282601f10612dc657805160ff1916838001178555612df4565b82800160010185558215612df4579182015b82811115612df3578251825591602001919060010190612dd8565b5b509050612e019190612e05565b5090565b612e2791905b80821115612e23576000816000905550600101612e0b565b5090565b905600a165627a7a723058202cf22cdbff8c934524c714c3b49ac876b58ffc9bc428bc69684385ca1d9410bd0029",
  "source": "pragma solidity 0.4.24;\n\n\n/**\n * @title Multisignature wallet - Allows multiple parties to agree on transactions before execution.\n */\ncontract MultiSigWallet {\n\n    uint constant public MAX_OWNER_COUNT = 50;\n\n    event Confirmation(address indexed sender, uint indexed transactionId);\n    event Revocation(address indexed sender, uint indexed transactionId);\n    event Submission(uint indexed transactionId);\n    event Execution(uint indexed transactionId);\n    event ExecutionFailure(uint indexed transactionId);\n    event Deposit(address indexed sender, uint value);\n    event Withdraw(address indexed to, uint value);\n    event OwnerAddition(address indexed owner);\n    event OwnerRemoval(address indexed owner);\n    event RequirementChange(uint required);\n\n    mapping(uint => Transaction) public transactions;\n    mapping(uint => mapping(address => bool)) public confirmations;\n    mapping(address => bool) public isOwner;\n    address[] public owners;\n    uint public required;\n    uint public transactionCount;\n\n    struct Transaction {\n        address destination;\n        uint value;\n        bytes data;\n        bool executed;\n    }\n\n    /**\n     * @dev Throws if sender is not a contract address itself\n     */\n    modifier onlyWallet() {\n        require(msg.sender == address(this), \"ERROR_NOT_A_WALLET\");\n        _;\n    }\n\n    /**\n     * @dev Throws if owner exists\n     */\n    modifier ownerDoesNotExist(address owner) {\n        require(!isOwner[owner], \"ERROR_OWNER_EXISTS\");\n        _;\n    }\n\n    /**\n     * @dev Throws if owner not exists\n     */\n    modifier ownerExists(address owner) {\n        require(isOwner[owner], \"ERROR_OWNER_NOT_EXISTS\");\n        _;\n    }\n\n    /**\n     * @dev Throws if transaction not existed\n     */\n    modifier transactionExists(uint transactionId) {\n        require(transactions[transactionId].destination != address(0), \"ERROR_TRANSACTION_NOT_EXISTS\");\n        _;\n    }\n\n    /**\n     * @dev Throws if transaction had not been confirmed\n     */\n    modifier confirmed(uint transactionId, address owner) {\n        require(confirmations[transactionId][owner], \"ERROR_TRANSACTION_NOT_CONFIRMED\");\n        _;\n    }\n\n    /**\n     * @dev Throws if transaction had not been confirmed\n     */ \n    modifier notConfirmed(uint transactionId, address owner) {\n        require(!confirmations[transactionId][owner], \"ERROR_TRANSACTION_ALREADY_CONFIRMED\");\n        _;\n    }\n\n    /**\n     * @dev Throws if transaction has been executed\n     */\n    modifier notExecuted(uint transactionId) {\n        require(!isExecuted(transactionId), \"ERROR_TRANSACTION_ALREADY_EXECUTED\");\n        _;\n    }\n\n    /**\n     * @dev Throws if address is invalid\n     */\n    modifier notNull(address _address) {\n        require(_address != address(0), \"ERROR_INVALID_ADDRESS\");\n        _;\n    }\n\n    /**\n     * @dev Throws if not valid requirement\n     * @param ownerCount Owner count\n     * @param _required Number of required confirmations\n     * @notice Throws if ownerCount not fits in MAX_OWNER_COUNT\n     */\n    modifier validRequirement(uint ownerCount, uint _required) {\n        require(ownerCount <= MAX_OWNER_COUNT && \n            _required <= ownerCount && \n            _required != 0 &&\n            ownerCount != 0, \"ERROR_INVALID_REQUIRED_CONFIRMATIONS_NUMBER\");\n        _;\n    }\n\n    /**\n     * @dev Fallback function allows to deposit ether.\n     */\n    function () external payable {\n\n        if (msg.value > 0) {\n            emit Deposit(msg.sender, msg.value);\n        }            \n    }\n\n    /**\n     * @dev Get current contract balance\n     */\n    function walletBalance() public view returns (uint256) {\n        return address(this).balance;\n    }\n\n    /**\n     * @dev Withdraw contract balance\n     * @param to Funds recipient address\n     * @notice Transaction has to be sent by wallet.\n     */\n    function withdraw(address to) public \n    onlyWallet \n    notNull(to) {\n        emit Withdraw(to, address(this).balance);\n        to.transfer(address(this).balance);\n    }\n\n    /**\n     * @dev Contract constructor sets initial owners and required number of confirmations.\n     * @param _owners List of initial owners.\n     * @param _required Number of required confirmations.\n     */\n    constructor(address[] memory _owners, uint _required) public validRequirement(_owners.length, _required) {\n\n        for (uint i = 0; i < _owners.length; i++) {\n            require(!isOwner[_owners[i]] && _owners[i] != address(0), \"ERROR_OWNER_EXISTS\");\n            isOwner[_owners[i]] = true;\n        }\n\n        owners = _owners;\n        required = _required;\n    }\n\n    /**\n     * @dev Allows to add a new owner. \n     * @param owner Address of new owner.\n     * @notice Transaction has to be sent by wallet.\n     */\n    function addOwner(address owner) public \n    onlyWallet \n    ownerDoesNotExist(owner) \n    notNull(owner) \n    validRequirement(owners.length + 1, required) {\n        isOwner[owner] = true;\n        owners.push(owner);\n        emit OwnerAddition(owner);\n    }\n\n    /**\n     * @dev Allows to remove an owner. \n     * @param owner Address of owner.\n     * @notice Transaction has to be sent by wallet.\n     */\n    function removeOwner(address owner) public \n    onlyWallet \n    ownerExists(owner) {\n\n        isOwner[owner] = false;\n\n        for (uint i = 0; i < owners.length - 1; i++) {\n\n            if (owners[i] == owner) {\n                owners[i] = owners[owners.length - 1];\n                break;\n            }\n        }\n            \n        owners.length -= 1;\n\n        if (required > owners.length) {\n            changeRequirement(owners.length);\n        }\n            \n        emit OwnerRemoval(owner);\n    }\n\n    /**\n     * @dev Allows to replace an owner with a new owner.\n     * @param owner Address of owner to be replaced.\n     * @param newOwner Address of new owner.\n     * @notice Transaction has to be sent by wallet.\n     */\n    function replaceOwner(address owner, address newOwner) public \n    onlyWallet \n    ownerExists(owner)\n    ownerDoesNotExist(newOwner) {\n\n        for (uint i = 0; i < owners.length; i++) {\n\n            if (owners[i] == owner) {\n                owners[i] = newOwner;\n                break;\n            }\n        }\n            \n        isOwner[owner] = false;\n        isOwner[newOwner] = true;\n        emit OwnerRemoval(owner);\n        emit OwnerAddition(newOwner);\n    }\n\n    /**\n     * @dev Allows to change the number of required confirmations. Transaction has to be sent by wallet.\n     * @param _required Number of required confirmations.\n     */\n    function changeRequirement(uint _required) public \n    onlyWallet\n    validRequirement(owners.length, _required) {\n\n        required = _required;\n        emit RequirementChange(_required);\n    }\n\n    /**\n     * @dev Allows an owner to submit and confirm a transaction.\n     * @param destination Transaction target address.\n     * @param value Transaction ether value.\n     * @param data Transaction data payload.\n     * @return Returns transaction ID.\n     */\n    function submitTransaction(\n        address destination, \n        uint value, \n        bytes memory data\n    ) public\n    returns(uint transactionId) {\n        transactionId = addTransaction(destination, value, data);\n        confirmTransaction(transactionId);\n    }\n\n    /**\n     * @dev Allows an owner to confirm a transaction.\n     * @param transactionId Transaction ID.\n     */\n    function confirmTransaction(uint transactionId) public\n    ownerExists(msg.sender)\n    transactionExists(transactionId)\n    notConfirmed(transactionId, msg.sender) {\n        confirmations[transactionId][msg.sender] = true;\n        emit Confirmation(msg.sender, transactionId);\n        executeTransaction(transactionId);\n    }\n\n    /**\n     * @dev Allows an owner to revoke a confirmation for a transaction.\n     * @param transactionId Transaction ID.\n     */\n    function revokeConfirmation(uint transactionId) public\n    ownerExists(msg.sender)\n    confirmed(transactionId, msg.sender)\n    notExecuted(transactionId) {\n\n        confirmations[transactionId][msg.sender] = false;\n        emit Revocation(msg.sender, transactionId);\n    }\n\n    /**\n     * @dev Allows anyone to execute a confirmed transaction.\n     * @param transactionId Transaction ID.\n     */\n    function executeTransaction(uint transactionId) public\n    ownerExists(msg.sender)\n    confirmed(transactionId, msg.sender)\n    notExecuted(transactionId) {\n\n        if (isConfirmed(transactionId)) {\n\n            transactions[transactionId].executed = true; \n\n            if (external_call(\n                transactions[transactionId].destination, \n                transactions[transactionId].value, \n                transactions[transactionId].data.length, \n                transactions[transactionId].data\n            )) {\n                emit Execution(transactionId);\n            } else {\n                emit ExecutionFailure(transactionId);\n                transactions[transactionId].executed = false;\n            }\n        }\n    }\n\n    /**\n     * @notice call has been separated into its own function in order to take advantage\n     * of the Solidity's code generator to produce a loop that copies tx.data into memory.\n     */\n    function external_call(\n        address destination, \n        uint value, \n        uint dataLength, \n        bytes memory data\n    ) private returns(bool) {\n        bool result;\n\n        assembly {\n            let x := mload(0x40) // \"Allocate\" memory for output (0x40 is where \"free memory\" pointer is stored by convention)\n            let d := add(data, 32) // First 32 bytes are the padded length of data, so exclude that\n            result := call(\n                sub(gas, 34710), // 34710 is the value that solidity is currently emitting\n                // It includes callGas (700) + callVeryLow (3, to pay for SUB) + callValueTransferGas (9000) +\n                // callNewAccountGas (25000, in case the destination address does not exist and needs creating)\n                destination,\n                value,\n                d,\n                dataLength, // Size of the input (in bytes) - this is what fixes the padding problem\n                x,\n                0 // Output is ignored, therefore the output size is zero\n            )\n        }\n\n        return result;\n    }\n\n    /**\n     * @dev Returns the confirmation status of a transaction.\n     * @param transactionId Transaction ID.\n     * @return Confirmation status.\n     */\n    function isConfirmed(uint transactionId) public view returns(bool) {\n        uint count = 0;\n\n        for (uint i = 0; i < owners.length; i++) {\n            \n            if (confirmations[transactionId][owners[i]]) {\n                count += 1;\n            }\n                \n            if (count == required) {\n                return true;\n            }                \n        }\n\n        return false;\n    }\n\n    /**\n     * @dev Returns the execution status of a transaction.\n     * @param transactionId Transaction ID.\n     * @return Execution status.\n     */\n    function isExecuted(uint transactionId) public view returns(bool) {\n        return transactions[transactionId].executed;\n    }\n\n    /**\n     * @dev Adds a new transaction to the transaction mapping, if transaction does not exist yet.\n     * @param destination Transaction target address.\n     * @param value Transaction ether value.\n     * @param data Transaction data payload.\n     * @return Returns transaction ID.\n     */\n    function addTransaction(\n        address destination, \n        uint value, \n        bytes memory data\n    ) internal notNull(destination) returns(uint transactionId) {\n        transactionId = transactionCount;\n        transactions[transactionId] = Transaction({\n            destination: destination,\n            value: value,\n            data: data,\n            executed: false\n        });\n        transactionCount += 1;\n        emit Submission(transactionId);\n    }\n\n    /**\n     * @dev Returns number of confirmations of a transaction.\n     * @param transactionId Transaction ID.\n     * @return Number of confirmations.\n     */\n    function getConfirmationCount(uint transactionId) public view returns(uint count) {\n        \n        for (uint i = 0; i < owners.length; i++) {\n\n            if (confirmations[transactionId][owners[i]]) {\n                count += 1;\n            }\n        }                            \n    }\n\n    /**\n     * @dev Returns total number of transactions after filers are applied.\n     * @param pending Include pending transactions.\n     * @param executed Include executed transactions.\n     * @return Total number of transactions after filters are applied.\n     */\n    function getTransactionCount(bool pending, bool executed) public view returns(uint count) {\n\n        for (uint i = 0; i < transactionCount; i++) {\n\n            if (pending && !transactions[i].executed ||\n                executed && transactions[i].executed) {\n\n                count += 1;\n            }\n        }               \n    }\n\n    /**\n     * @dev Returns list of owners.\n     * @return List of owner addresses.\n     */\n    function getOwners() public view returns(address[] memory) {\n        return owners;\n    }\n\n    /**\n     * @dev Returns array with owner addresses, which confirmed transaction.\n     * @param transactionId Transaction ID.\n     * @return Returns array of owner addresses.\n     */\n    function getConfirmations(uint transactionId) public view returns(address[] memory _confirmations) {\n        address[] memory confirmationsTemp = new address[](owners.length);\n        uint count = 0;\n        uint i;\n\n        for (i = 0; i < owners.length; i++) {\n            \n            if (confirmations[transactionId][owners[i]]) {\n                confirmationsTemp[count] = owners[i];\n                count += 1;\n            }\n        }\n            \n        _confirmations = new address[](count);\n\n        for (i = 0; i < count; i++) {\n            _confirmations[i] = confirmationsTemp[i];\n        }            \n    }\n\n    /**\n     * @dev Returns list of pending transaction IDs\n     * @return Returns array of transaction IDs.\n     */\n    function getPendingTransactionIds() public view returns(uint[] memory) {\n        uint[] memory _transactionIds;\n        uint[] memory transactionIdsTemp = new uint[](transactionCount);\n        uint count = 0;\n        uint i;\n\n        for (i = 0; i < transactionCount; i++) {\n\n            if (!isExecuted(i)) {\n\n                transactionIdsTemp[count] = i;\n                count += 1;\n            }\n        }\n        \n        _transactionIds = new uint[](count);\n\n        for (i = 0; i < count; i++) {\n            _transactionIds[i] = transactionIdsTemp[i];\n        }\n\n        return _transactionIds;            \n    }\n}\n",
  "sourcePath": "/home/kostysh/dev/pantoken/contracts/MultiSigWallet.sol",
  "compiler": {
    "name": "solc",
    "version": "0.4.24+commit.e67f0147.Emscripten.clang"
  },
  "schemaVersion": "2.0.1",
  "updatedAt": "2018-12-13T05:32:39.347Z"
}