{
  "contractName": "MultiSigWallet",
  "abi": [
    {
      "constant": true,
      "inputs": [
        {
          "name": "",
          "type": "uint256"
        }
      ],
      "name": "owners",
      "outputs": [
        {
          "name": "",
          "type": "address"
        }
      ],
      "payable": false,
      "stateMutability": "view",
      "type": "function"
    },
    {
      "constant": true,
      "inputs": [
        {
          "name": "",
          "type": "address"
        }
      ],
      "name": "isOwner",
      "outputs": [
        {
          "name": "",
          "type": "bool"
        }
      ],
      "payable": false,
      "stateMutability": "view",
      "type": "function"
    },
    {
      "constant": true,
      "inputs": [
        {
          "name": "",
          "type": "uint256"
        },
        {
          "name": "",
          "type": "address"
        }
      ],
      "name": "confirmations",
      "outputs": [
        {
          "name": "",
          "type": "bool"
        }
      ],
      "payable": false,
      "stateMutability": "view",
      "type": "function"
    },
    {
      "constant": true,
      "inputs": [
        {
          "name": "",
          "type": "uint256"
        }
      ],
      "name": "transactions",
      "outputs": [
        {
          "name": "destination",
          "type": "address"
        },
        {
          "name": "value",
          "type": "uint256"
        },
        {
          "name": "data",
          "type": "bytes"
        },
        {
          "name": "executed",
          "type": "bool"
        }
      ],
      "payable": false,
      "stateMutability": "view",
      "type": "function"
    },
    {
      "constant": true,
      "inputs": [],
      "name": "transactionCount",
      "outputs": [
        {
          "name": "",
          "type": "uint256"
        }
      ],
      "payable": false,
      "stateMutability": "view",
      "type": "function"
    },
    {
      "constant": true,
      "inputs": [],
      "name": "MAX_OWNER_COUNT",
      "outputs": [
        {
          "name": "",
          "type": "uint256"
        }
      ],
      "payable": false,
      "stateMutability": "view",
      "type": "function"
    },
    {
      "constant": true,
      "inputs": [],
      "name": "required",
      "outputs": [
        {
          "name": "",
          "type": "uint256"
        }
      ],
      "payable": false,
      "stateMutability": "view",
      "type": "function"
    },
    {
      "inputs": [
        {
          "name": "_owners",
          "type": "address[]"
        },
        {
          "name": "_required",
          "type": "uint256"
        }
      ],
      "payable": false,
      "stateMutability": "nonpayable",
      "type": "constructor"
    },
    {
      "payable": true,
      "stateMutability": "payable",
      "type": "fallback"
    },
    {
      "anonymous": false,
      "inputs": [
        {
          "indexed": true,
          "name": "sender",
          "type": "address"
        },
        {
          "indexed": true,
          "name": "transactionId",
          "type": "uint256"
        }
      ],
      "name": "Confirmation",
      "type": "event"
    },
    {
      "anonymous": false,
      "inputs": [
        {
          "indexed": true,
          "name": "sender",
          "type": "address"
        },
        {
          "indexed": true,
          "name": "transactionId",
          "type": "uint256"
        }
      ],
      "name": "Revocation",
      "type": "event"
    },
    {
      "anonymous": false,
      "inputs": [
        {
          "indexed": true,
          "name": "transactionId",
          "type": "uint256"
        }
      ],
      "name": "Submission",
      "type": "event"
    },
    {
      "anonymous": false,
      "inputs": [
        {
          "indexed": true,
          "name": "transactionId",
          "type": "uint256"
        }
      ],
      "name": "Execution",
      "type": "event"
    },
    {
      "anonymous": false,
      "inputs": [
        {
          "indexed": true,
          "name": "transactionId",
          "type": "uint256"
        }
      ],
      "name": "ExecutionFailure",
      "type": "event"
    },
    {
      "anonymous": false,
      "inputs": [
        {
          "indexed": true,
          "name": "sender",
          "type": "address"
        },
        {
          "indexed": false,
          "name": "value",
          "type": "uint256"
        }
      ],
      "name": "Deposit",
      "type": "event"
    },
    {
      "anonymous": false,
      "inputs": [
        {
          "indexed": true,
          "name": "sender",
          "type": "address"
        },
        {
          "indexed": false,
          "name": "value",
          "type": "uint256"
        }
      ],
      "name": "Withdraw",
      "type": "event"
    },
    {
      "anonymous": false,
      "inputs": [
        {
          "indexed": true,
          "name": "owner",
          "type": "address"
        }
      ],
      "name": "OwnerAddition",
      "type": "event"
    },
    {
      "anonymous": false,
      "inputs": [
        {
          "indexed": true,
          "name": "owner",
          "type": "address"
        }
      ],
      "name": "OwnerRemoval",
      "type": "event"
    },
    {
      "anonymous": false,
      "inputs": [
        {
          "indexed": false,
          "name": "required",
          "type": "uint256"
        }
      ],
      "name": "RequirementChange",
      "type": "event"
    },
    {
      "constant": true,
      "inputs": [],
      "name": "walletBalance",
      "outputs": [
        {
          "name": "",
          "type": "uint256"
        }
      ],
      "payable": false,
      "stateMutability": "view",
      "type": "function"
    },
    {
      "constant": false,
      "inputs": [
        {
          "name": "to",
          "type": "address"
        }
      ],
      "name": "withdraw",
      "outputs": [],
      "payable": false,
      "stateMutability": "nonpayable",
      "type": "function"
    },
    {
      "constant": false,
      "inputs": [
        {
          "name": "owner",
          "type": "address"
        }
      ],
      "name": "addOwner",
      "outputs": [],
      "payable": false,
      "stateMutability": "nonpayable",
      "type": "function"
    },
    {
      "constant": false,
      "inputs": [
        {
          "name": "owner",
          "type": "address"
        }
      ],
      "name": "removeOwner",
      "outputs": [],
      "payable": false,
      "stateMutability": "nonpayable",
      "type": "function"
    },
    {
      "constant": false,
      "inputs": [
        {
          "name": "owner",
          "type": "address"
        },
        {
          "name": "newOwner",
          "type": "address"
        }
      ],
      "name": "replaceOwner",
      "outputs": [],
      "payable": false,
      "stateMutability": "nonpayable",
      "type": "function"
    },
    {
      "constant": false,
      "inputs": [
        {
          "name": "_required",
          "type": "uint256"
        }
      ],
      "name": "changeRequirement",
      "outputs": [],
      "payable": false,
      "stateMutability": "nonpayable",
      "type": "function"
    },
    {
      "constant": false,
      "inputs": [
        {
          "name": "destination",
          "type": "address"
        },
        {
          "name": "value",
          "type": "uint256"
        },
        {
          "name": "data",
          "type": "bytes"
        }
      ],
      "name": "submitTransaction",
      "outputs": [
        {
          "name": "transactionId",
          "type": "uint256"
        }
      ],
      "payable": false,
      "stateMutability": "nonpayable",
      "type": "function"
    },
    {
      "constant": false,
      "inputs": [
        {
          "name": "transactionId",
          "type": "uint256"
        }
      ],
      "name": "confirmTransaction",
      "outputs": [],
      "payable": false,
      "stateMutability": "nonpayable",
      "type": "function"
    },
    {
      "constant": false,
      "inputs": [
        {
          "name": "transactionId",
          "type": "uint256"
        }
      ],
      "name": "revokeConfirmation",
      "outputs": [],
      "payable": false,
      "stateMutability": "nonpayable",
      "type": "function"
    },
    {
      "constant": false,
      "inputs": [
        {
          "name": "transactionId",
          "type": "uint256"
        }
      ],
      "name": "executeTransaction",
      "outputs": [],
      "payable": false,
      "stateMutability": "nonpayable",
      "type": "function"
    },
    {
      "constant": true,
      "inputs": [
        {
          "name": "transactionId",
          "type": "uint256"
        }
      ],
      "name": "isConfirmed",
      "outputs": [
        {
          "name": "",
          "type": "bool"
        }
      ],
      "payable": false,
      "stateMutability": "view",
      "type": "function"
    },
    {
      "constant": true,
      "inputs": [
        {
          "name": "transactionId",
          "type": "uint256"
        }
      ],
      "name": "getConfirmationCount",
      "outputs": [
        {
          "name": "count",
          "type": "uint256"
        }
      ],
      "payable": false,
      "stateMutability": "view",
      "type": "function"
    },
    {
      "constant": true,
      "inputs": [
        {
          "name": "pending",
          "type": "bool"
        },
        {
          "name": "executed",
          "type": "bool"
        }
      ],
      "name": "getTransactionCount",
      "outputs": [
        {
          "name": "count",
          "type": "uint256"
        }
      ],
      "payable": false,
      "stateMutability": "view",
      "type": "function"
    },
    {
      "constant": true,
      "inputs": [],
      "name": "getOwners",
      "outputs": [
        {
          "name": "",
          "type": "address[]"
        }
      ],
      "payable": false,
      "stateMutability": "view",
      "type": "function"
    },
    {
      "constant": true,
      "inputs": [
        {
          "name": "transactionId",
          "type": "uint256"
        }
      ],
      "name": "getConfirmations",
      "outputs": [
        {
          "name": "_confirmations",
          "type": "address[]"
        }
      ],
      "payable": false,
      "stateMutability": "view",
      "type": "function"
    },
    {
      "constant": true,
      "inputs": [
        {
          "name": "from",
          "type": "uint256"
        },
        {
          "name": "to",
          "type": "uint256"
        },
        {
          "name": "pending",
          "type": "bool"
        },
        {
          "name": "executed",
          "type": "bool"
        }
      ],
      "name": "getTransactionIds",
      "outputs": [
        {
          "name": "_transactionIds",
          "type": "uint256[]"
        }
      ],
      "payable": false,
      "stateMutability": "view",
      "type": "function"
    }
  ],
  "bytecode": "0x60806040523480156200001157600080fd5b50604051620032533803806200325383398101806040528101908080518201929190602001805190602001909291905050506000825182603282111580156200005a5750818111155b801562000068575060008114155b801562000076575060008214155b151562000111576040517f08c379a000000000000000000000000000000000000000000000000000000000815260040180806020018281038252602b8152602001807f4552524f525f494e56414c49445f52455155495245445f434f4e4649524d415481526020017f494f4e535f4e554d42455200000000000000000000000000000000000000000081525060400191505060405180910390fd5b600092505b8451831015620002cb576002600086858151811015156200013357fe5b9060200190602002015173ffffffffffffffffffffffffffffffffffffffff1673ffffffffffffffffffffffffffffffffffffffff16815260200190815260200160002060009054906101000a900460ff16158015620001d85750600073ffffffffffffffffffffffffffffffffffffffff168584815181101515620001b557fe5b9060200190602002015173ffffffffffffffffffffffffffffffffffffffff1614155b15156200024d576040517f08c379a00000000000000000000000000000000000000000000000000000000081526004018080602001828103825260128152602001807f4552524f525f4f574e45525f455849535453000000000000000000000000000081525060200191505060405180910390fd5b60016002600087868151811015156200026257fe5b9060200190602002015173ffffffffffffffffffffffffffffffffffffffff1673ffffffffffffffffffffffffffffffffffffffff16815260200190815260200160002060006101000a81548160ff021916908315150217905550828060010193505062000116565b8460039080519060200190620002e3929190620002f6565b50836004819055505050505050620003cb565b82805482825590600052602060002090810192821562000372579160200282015b82811115620003715782518260006101000a81548173ffffffffffffffffffffffffffffffffffffffff021916908373ffffffffffffffffffffffffffffffffffffffff1602179055509160200191906001019062000317565b5b50905062000381919062000385565b5090565b620003c891905b80821115620003c457600081816101000a81549073ffffffffffffffffffffffffffffffffffffffff0219169055506001016200038c565b5090565b90565b612e7880620003db6000396000f300608060405260043610610133576000357c0100000000000000000000000000000000000000000000000000000000900463ffffffff168063025e7c271461018d578063173825d9146101fa57806320ea8d861461023d5780632f54bf6e1461026a5780633411c81c146102c557806351cff8d91461032a578063547415251461036d5780637065cb48146103bc578063784547a7146103ff5780638b51d13f146104445780639ace38c214610485578063a0e67e2b14610570578063a8abe69a146105dc578063b5dc40c314610680578063b77bf60014610702578063ba51a6df1461072d578063c01a8c841461075a578063c642747414610787578063cd0a314b1461082e578063d74f8edd14610859578063dc8452cd14610884578063e20056e6146108af578063ee22610b14610912575b600034111561018b573373ffffffffffffffffffffffffffffffffffffffff167fe1fffcc4923d04b559f4d29a8bfc6cda04eb5b0d3c460751c2402c5c5cc9109c346040518082815260200191505060405180910390a25b005b34801561019957600080fd5b506101b86004803603810190808035906020019092919050505061093f565b604051808273ffffffffffffffffffffffffffffffffffffffff1673ffffffffffffffffffffffffffffffffffffffff16815260200191505060405180910390f35b34801561020657600080fd5b5061023b600480360381019080803573ffffffffffffffffffffffffffffffffffffffff16906020019092919050505061097d565b005b34801561024957600080fd5b5061026860048036038101908080359060200190929190505050610ce8565b005b34801561027657600080fd5b506102ab600480360381019080803573ffffffffffffffffffffffffffffffffffffffff169060200190929190505050610ff1565b604051808215151515815260200191505060405180910390f35b3480156102d157600080fd5b5061031060048036038101908080359060200190929190803573ffffffffffffffffffffffffffffffffffffffff169060200190929190505050611011565b604051808215151515815260200191505060405180910390f35b34801561033657600080fd5b5061036b600480360381019080803573ffffffffffffffffffffffffffffffffffffffff169060200190929190505050611040565b005b34801561037957600080fd5b506103a6600480360381019080803515159060200190929190803515159060200190929190505050611250565b6040518082815260200191505060405180910390f35b3480156103c857600080fd5b506103fd600480360381019080803573ffffffffffffffffffffffffffffffffffffffff1690602001909291905050506112e2565b005b34801561040b57600080fd5b5061042a600480360381019080803590602001909291905050506116c7565b604051808215151515815260200191505060405180910390f35b34801561045057600080fd5b5061046f600480360381019080803590602001909291905050506117b0565b6040518082815260200191505060405180910390f35b34801561049157600080fd5b506104b06004803603810190808035906020019092919050505061187b565b604051808573ffffffffffffffffffffffffffffffffffffffff1673ffffffffffffffffffffffffffffffffffffffff1681526020018481526020018060200183151515158152602001828103825284818151815260200191508051906020019080838360005b83811015610532578082015181840152602081019050610517565b50505050905090810190601f16801561055f5780820380516001836020036101000a031916815260200191505b509550505050505060405180910390f35b34801561057c57600080fd5b50610585611970565b6040518080602001828103825283818151815260200191508051906020019060200280838360005b838110156105c85780820151818401526020810190506105ad565b505050509050019250505060405180910390f35b3480156105e857600080fd5b5061062960048036038101908080359060200190929190803590602001909291908035151590602001909291908035151590602001909291905050506119fe565b6040518080602001828103825283818151815260200191508051906020019060200280838360005b8381101561066c578082015181840152602081019050610651565b505050509050019250505060405180910390f35b34801561068c57600080fd5b506106ab60048036038101908080359060200190929190505050611b6f565b6040518080602001828103825283818151815260200191508051906020019060200280838360005b838110156106ee5780820151818401526020810190506106d3565b505050509050019250505060405180910390f35b34801561070e57600080fd5b50610717611dac565b6040518082815260200191505060405180910390f35b34801561073957600080fd5b5061075860048036038101908080359060200190929190505050611db2565b005b34801561076657600080fd5b5061078560048036038101908080359060200190929190505050611f64565b005b34801561079357600080fd5b50610818600480360381019080803573ffffffffffffffffffffffffffffffffffffffff16906020019092919080359060200190929190803590602001908201803590602001908080601f0160208091040260200160405190810160405280939291908181526020018383808284378201915050505050509192919290505050612292565b6040518082815260200191505060405180910390f35b34801561083a57600080fd5b506108436122b1565b6040518082815260200191505060405180910390f35b34801561086557600080fd5b5061086e6122d0565b6040518082815260200191505060405180910390f35b34801561089057600080fd5b506108996122d5565b6040518082815260200191505060405180910390f35b3480156108bb57600080fd5b50610910600480360381019080803573ffffffffffffffffffffffffffffffffffffffff169060200190929190803573ffffffffffffffffffffffffffffffffffffffff1690602001909291905050506122db565b005b34801561091e57600080fd5b5061093d6004803603810190808035906020019092919050505061272b565b005b60038181548110151561094e57fe5b906000526020600020016000915054906101000a900473ffffffffffffffffffffffffffffffffffffffff1681565b60003073ffffffffffffffffffffffffffffffffffffffff163373ffffffffffffffffffffffffffffffffffffffff16141515610a22576040517f08c379a00000000000000000000000000000000000000000000000000000000081526004018080602001828103825260128152602001807f4552524f525f4e4f545f415f57414c4c4554000000000000000000000000000081525060200191505060405180910390fd5b81600260008273ffffffffffffffffffffffffffffffffffffffff1673ffffffffffffffffffffffffffffffffffffffff16815260200190815260200160002060009054906101000a900460ff161515610ae4576040517f08c379a00000000000000000000000000000000000000000000000000000000081526004018080602001828103825260168152602001807f4552524f525f4f574e45525f4e4f545f4558495354530000000000000000000081525060200191505060405180910390fd5b6000600260008573ffffffffffffffffffffffffffffffffffffffff1673ffffffffffffffffffffffffffffffffffffffff16815260200190815260200160002060006101000a81548160ff021916908315150217905550600091505b600160038054905003821015610c69578273ffffffffffffffffffffffffffffffffffffffff16600383815481101515610b7757fe5b9060005260206000200160009054906101000a900473ffffffffffffffffffffffffffffffffffffffff1673ffffffffffffffffffffffffffffffffffffffff161415610c5c576003600160038054905003815481101515610bd557fe5b9060005260206000200160009054906101000a900473ffffffffffffffffffffffffffffffffffffffff16600383815481101515610c0f57fe5b9060005260206000200160006101000a81548173ffffffffffffffffffffffffffffffffffffffff021916908373ffffffffffffffffffffffffffffffffffffffff160217905550610c69565b8180600101925050610b41565b6001600381818054905003915081610c819190612d7b565b506003805490506004541115610ca057610c9f600380549050611db2565b5b8273ffffffffffffffffffffffffffffffffffffffff167f8001553a916ef2f495d26a907cc54d96ed840d7bda71e73194bf5a9df7a76b9060405160405180910390a2505050565b33600260008273ffffffffffffffffffffffffffffffffffffffff1673ffffffffffffffffffffffffffffffffffffffff16815260200190815260200160002060009054906101000a900460ff161515610daa576040517f08c379a00000000000000000000000000000000000000000000000000000000081526004018080602001828103825260168152602001807f4552524f525f4f574e45525f4e4f545f4558495354530000000000000000000081525060200191505060405180910390fd5b81336001600083815260200190815260200160002060008273ffffffffffffffffffffffffffffffffffffffff1673ffffffffffffffffffffffffffffffffffffffff16815260200190815260200160002060009054906101000a900460ff161515610ea4576040517f08c379a00000000000000000000000000000000000000000000000000000000081526004018080602001828103825260238152602001807f4552524f525f5452414e53414354494f4e5f414c52454144595f434f4e46495281526020017f4d4544000000000000000000000000000000000000000000000000000000000081525060400191505060405180910390fd5b8360008082815260200190815260200160002060030160009054906101000a900460ff16151515610f3d576040517f08c379a000000000000000000000000000000000000000000000000000000000815260040180806020018281038252601e8152602001807f4552524f525f5452414e53414354494f4e5f4e4f545f4558454355544544000081525060200191505060405180910390fd5b60006001600087815260200190815260200160002060003373ffffffffffffffffffffffffffffffffffffffff1673ffffffffffffffffffffffffffffffffffffffff16815260200190815260200160002060006101000a81548160ff021916908315150217905550843373ffffffffffffffffffffffffffffffffffffffff167ff6a317157440607f36269043eb55f1287a5a19ba2216afeab88cd46cbcfb88e960405160405180910390a35050505050565b60026020528060005260406000206000915054906101000a900460ff1681565b60016020528160005260406000206020528060005260406000206000915091509054906101000a900460ff1681565b3073ffffffffffffffffffffffffffffffffffffffff163373ffffffffffffffffffffffffffffffffffffffff161415156110e3576040517f08c379a00000000000000000000000000000000000000000000000000000000081526004018080602001828103825260128152602001807f4552524f525f4e4f545f415f57414c4c4554000000000000000000000000000081525060200191505060405180910390fd5b80600073ffffffffffffffffffffffffffffffffffffffff168173ffffffffffffffffffffffffffffffffffffffff1614151515611189576040517f08c379a00000000000000000000000000000000000000000000000000000000081526004018080602001828103825260158152602001807f4552524f525f494e56414c49445f41444452455353000000000000000000000081525060200191505060405180910390fd5b8173ffffffffffffffffffffffffffffffffffffffff167f884edad9ce6fa2440d8a54cc123490eb96d2768479d49ff9c7366125a94243643073ffffffffffffffffffffffffffffffffffffffff16316040518082815260200191505060405180910390a28173ffffffffffffffffffffffffffffffffffffffff166108fc3073ffffffffffffffffffffffffffffffffffffffff16319081150290604051600060405180830381858888f1935050505015801561124b573d6000803e3d6000fd5b505050565b600080600090505b6005548110156112db5783801561128f575060008082815260200190815260200160002060030160009054906101000a900460ff16155b806112c257508280156112c1575060008082815260200190815260200160002060030160009054906101000a900460ff165b5b156112ce576001820191505b8080600101915050611258565b5092915050565b3073ffffffffffffffffffffffffffffffffffffffff163373ffffffffffffffffffffffffffffffffffffffff16141515611385576040517f08c379a00000000000000000000000000000000000000000000000000000000081526004018080602001828103825260128152602001807f4552524f525f4e4f545f415f57414c4c4554000000000000000000000000000081525060200191505060405180910390fd5b80600260008273ffffffffffffffffffffffffffffffffffffffff1673ffffffffffffffffffffffffffffffffffffffff16815260200190815260200160002060009054906101000a900460ff16151515611448576040517f08c379a00000000000000000000000000000000000000000000000000000000081526004018080602001828103825260128152602001807f4552524f525f4f574e45525f455849535453000000000000000000000000000081525060200191505060405180910390fd5b81600073ffffffffffffffffffffffffffffffffffffffff168173ffffffffffffffffffffffffffffffffffffffff16141515156114ee576040517f08c379a00000000000000000000000000000000000000000000000000000000081526004018080602001828103825260158152602001807f4552524f525f494e56414c49445f41444452455353000000000000000000000081525060200191505060405180910390fd5b6001600380549050016004546032821115801561150b5750818111155b8015611518575060008114155b8015611525575060008214155b15156115bf576040517f08c379a000000000000000000000000000000000000000000000000000000000815260040180806020018281038252602b8152602001807f4552524f525f494e56414c49445f52455155495245445f434f4e4649524d415481526020017f494f4e535f4e554d42455200000000000000000000000000000000000000000081525060400191505060405180910390fd5b6001600260008773ffffffffffffffffffffffffffffffffffffffff1673ffffffffffffffffffffffffffffffffffffffff16815260200190815260200160002060006101000a81548160ff02191690831515021790555060038590806001815401808255809150509060018203906000526020600020016000909192909190916101000a81548173ffffffffffffffffffffffffffffffffffffffff021916908373ffffffffffffffffffffffffffffffffffffffff160217905550508473ffffffffffffffffffffffffffffffffffffffff167ff39e6e1eb0edcf53c221607b54b00cd28f3196fed0a24994dc308b8f611b682d60405160405180910390a25050505050565b6000806000809150600090505b6003805490508110156117a45760016000858152602001908152602001600020600060038381548110151561170557fe5b9060005260206000200160009054906101000a900473ffffffffffffffffffffffffffffffffffffffff1673ffffffffffffffffffffffffffffffffffffffff1673ffffffffffffffffffffffffffffffffffffffff16815260200190815260200160002060009054906101000a900460ff1615611784576001820191505b60045482141561179757600192506117a9565b80806001019150506116d4565b600092505b5050919050565b600080600090505b600380549050811015611875576001600084815260200190815260200160002060006003838154811015156117e957fe5b9060005260206000200160009054906101000a900473ffffffffffffffffffffffffffffffffffffffff1673ffffffffffffffffffffffffffffffffffffffff1673ffffffffffffffffffffffffffffffffffffffff16815260200190815260200160002060009054906101000a900460ff1615611868576001820191505b80806001019150506117b8565b50919050565b60006020528060005260406000206000915090508060000160009054906101000a900473ffffffffffffffffffffffffffffffffffffffff1690806001015490806002018054600181600116156101000203166002900480601f0160208091040260200160405190810160405280929190818152602001828054600181600116156101000203166002900480156119535780601f1061192857610100808354040283529160200191611953565b820191906000526020600020905b81548152906001019060200180831161193657829003601f168201915b5050505050908060030160009054906101000a900460ff16905084565b606060038054806020026020016040519081016040528092919081815260200182805480156119f457602002820191906000526020600020905b8160009054906101000a900473ffffffffffffffffffffffffffffffffffffffff1673ffffffffffffffffffffffffffffffffffffffff16815260200190600101908083116119aa575b5050505050905090565b606080600080600554604051908082528060200260200182016040528015611a355781602001602082028038833980820191505090505b50925060009150600090505b600554811015611ae157858015611a78575060008082815260200190815260200160002060030160009054906101000a900460ff16155b80611aab5750848015611aaa575060008082815260200190815260200160002060030160009054906101000a900460ff165b5b15611ad457808383815181101515611abf57fe5b90602001906020020181815250506001820191505b8080600101915050611a41565b878703604051908082528060200260200182016040528015611b125781602001602082028038833980820191505090505b5093508790505b86811015611b64578281815181101515611b2f57fe5b9060200190602002015184898303815181101515611b4957fe5b90602001906020020181815250508080600101915050611b19565b505050949350505050565b606080600080600380549050604051908082528060200260200182016040528015611ba95781602001602082028038833980820191505090505b50925060009150600090505b600380549050811015611cf657600160008681526020019081526020016000206000600383815481101515611be657fe5b9060005260206000200160009054906101000a900473ffffffffffffffffffffffffffffffffffffffff1673ffffffffffffffffffffffffffffffffffffffff1673ffffffffffffffffffffffffffffffffffffffff16815260200190815260200160002060009054906101000a900460ff1615611ce957600381815481101515611c6d57fe5b9060005260206000200160009054906101000a900473ffffffffffffffffffffffffffffffffffffffff168383815181101515611ca657fe5b9060200190602002019073ffffffffffffffffffffffffffffffffffffffff16908173ffffffffffffffffffffffffffffffffffffffff16815250506001820191505b8080600101915050611bb5565b81604051908082528060200260200182016040528015611d255781602001602082028038833980820191505090505b509350600090505b81811015611da4578281815181101515611d4357fe5b906020019060200201518482815181101515611d5b57fe5b9060200190602002019073ffffffffffffffffffffffffffffffffffffffff16908173ffffffffffffffffffffffffffffffffffffffff16815250508080600101915050611d2d565b505050919050565b60055481565b3073ffffffffffffffffffffffffffffffffffffffff163373ffffffffffffffffffffffffffffffffffffffff16141515611e55576040517f08c379a00000000000000000000000000000000000000000000000000000000081526004018080602001828103825260128152602001807f4552524f525f4e4f545f415f57414c4c4554000000000000000000000000000081525060200191505060405180910390fd5b6003805490508160328211158015611e6d5750818111155b8015611e7a575060008114155b8015611e87575060008214155b1515611f21576040517f08c379a000000000000000000000000000000000000000000000000000000000815260040180806020018281038252602b8152602001807f4552524f525f494e56414c49445f52455155495245445f434f4e4649524d415481526020017f494f4e535f4e554d42455200000000000000000000000000000000000000000081525060400191505060405180910390fd5b826004819055507fa3f1ee9126a074d9326c682f561767f710e927faa811f7a99829d49dc421797a836040518082815260200191505060405180910390a1505050565b33600260008273ffffffffffffffffffffffffffffffffffffffff1673ffffffffffffffffffffffffffffffffffffffff16815260200190815260200160002060009054906101000a900460ff161515612026576040517f08c379a00000000000000000000000000000000000000000000000000000000081526004018080602001828103825260168152602001807f4552524f525f4f574e45525f4e4f545f4558495354530000000000000000000081525060200191505060405180910390fd5b81600073ffffffffffffffffffffffffffffffffffffffff1660008083815260200190815260200160002060000160009054906101000a900473ffffffffffffffffffffffffffffffffffffffff1673ffffffffffffffffffffffffffffffffffffffff1614151515612101576040517f08c379a000000000000000000000000000000000000000000000000000000000815260040180806020018281038252601c8152602001807f4552524f525f5452414e53414354494f4e5f4e4f545f4558495354530000000081525060200191505060405180910390fd5b82336001600083815260200190815260200160002060008273ffffffffffffffffffffffffffffffffffffffff1673ffffffffffffffffffffffffffffffffffffffff16815260200190815260200160002060009054906101000a900460ff161515156121d6576040517f08c379a000000000000000000000000000000000000000000000000000000000815260040180806020018281038252601f8152602001807f4552524f525f5452414e53414354494f4e5f4e4f545f434f4e4649524d45440081525060200191505060405180910390fd5b600180600087815260200190815260200160002060003373ffffffffffffffffffffffffffffffffffffffff1673ffffffffffffffffffffffffffffffffffffffff16815260200190815260200160002060006101000a81548160ff021916908315150217905550843373ffffffffffffffffffffffffffffffffffffffff167f4a504a94899432a9846e1aa406dceb1bcfd538bb839071d49d1e5e23f5be30ef60405160405180910390a361228b8561272b565b5050505050565b600061229f848484612b83565b90506122aa81611f64565b9392505050565b60003073ffffffffffffffffffffffffffffffffffffffff1631905090565b603281565b60045481565b60003073ffffffffffffffffffffffffffffffffffffffff163373ffffffffffffffffffffffffffffffffffffffff16141515612380576040517f08c379a00000000000000000000000000000000000000000000000000000000081526004018080602001828103825260128152602001807f4552524f525f4e4f545f415f57414c4c4554000000000000000000000000000081525060200191505060405180910390fd5b82600260008273ffffffffffffffffffffffffffffffffffffffff1673ffffffffffffffffffffffffffffffffffffffff16815260200190815260200160002060009054906101000a900460ff161515612442576040517f08c379a00000000000000000000000000000000000000000000000000000000081526004018080602001828103825260168152602001807f4552524f525f4f574e45525f4e4f545f4558495354530000000000000000000081525060200191505060405180910390fd5b82600260008273ffffffffffffffffffffffffffffffffffffffff1673ffffffffffffffffffffffffffffffffffffffff16815260200190815260200160002060009054906101000a900460ff16151515612505576040517f08c379a00000000000000000000000000000000000000000000000000000000081526004018080602001828103825260128152602001807f4552524f525f4f574e45525f455849535453000000000000000000000000000081525060200191505060405180910390fd5b600092505b6003805490508310156125ee578473ffffffffffffffffffffffffffffffffffffffff1660038481548110151561253d57fe5b9060005260206000200160009054906101000a900473ffffffffffffffffffffffffffffffffffffffff1673ffffffffffffffffffffffffffffffffffffffff1614156125e1578360038481548110151561259457fe5b9060005260206000200160006101000a81548173ffffffffffffffffffffffffffffffffffffffff021916908373ffffffffffffffffffffffffffffffffffffffff1602179055506125ee565b828060010193505061250a565b6000600260008773ffffffffffffffffffffffffffffffffffffffff1673ffffffffffffffffffffffffffffffffffffffff16815260200190815260200160002060006101000a81548160ff0219169083151502179055506001600260008673ffffffffffffffffffffffffffffffffffffffff1673ffffffffffffffffffffffffffffffffffffffff16815260200190815260200160002060006101000a81548160ff0219169083151502179055508473ffffffffffffffffffffffffffffffffffffffff167f8001553a916ef2f495d26a907cc54d96ed840d7bda71e73194bf5a9df7a76b9060405160405180910390a28373ffffffffffffffffffffffffffffffffffffffff167ff39e6e1eb0edcf53c221607b54b00cd28f3196fed0a24994dc308b8f611b682d60405160405180910390a25050505050565b33600260008273ffffffffffffffffffffffffffffffffffffffff1673ffffffffffffffffffffffffffffffffffffffff16815260200190815260200160002060009054906101000a900460ff1615156127ed576040517f08c379a00000000000000000000000000000000000000000000000000000000081526004018080602001828103825260168152602001807f4552524f525f4f574e45525f4e4f545f4558495354530000000000000000000081525060200191505060405180910390fd5b81336001600083815260200190815260200160002060008273ffffffffffffffffffffffffffffffffffffffff1673ffffffffffffffffffffffffffffffffffffffff16815260200190815260200160002060009054906101000a900460ff1615156128e7576040517f08c379a00000000000000000000000000000000000000000000000000000000081526004018080602001828103825260238152602001807f4552524f525f5452414e53414354494f4e5f414c52454144595f434f4e46495281526020017f4d4544000000000000000000000000000000000000000000000000000000000081525060400191505060405180910390fd5b8360008082815260200190815260200160002060030160009054906101000a900460ff16151515612980576040517f08c379a000000000000000000000000000000000000000000000000000000000815260040180806020018281038252601e8152602001807f4552524f525f5452414e53414354494f4e5f4e4f545f4558454355544544000081525060200191505060405180910390fd5b612989856116c7565b15612b7c57600160008087815260200190815260200160002060030160006101000a81548160ff021916908315150217905550612ae860008087815260200190815260200160002060000160009054906101000a900473ffffffffffffffffffffffffffffffffffffffff16600080888152602001908152602001600020600101546000808981526020019081526020016000206002018054600181600116156101000203166002900490506000808a81526020019081526020016000206002018054600181600116156101000203166002900480601f016020809104026020016040519081016040528092919081815260200182805460018160011615610100020316600290048015612ade5780601f10612ab357610100808354040283529160200191612ade565b820191906000526020600020905b815481529060010190602001808311612ac157829003601f168201915b5050505050612d54565b15612b1f57847f33e13ecb54c3076d8e8bb8c2881800a4d972b792045ffae98fdf46df365fed7560405160405180910390a2612b7b565b847f526441bb6c1aba3c9a4a6ca1d6545da9c2333c8c48343ef398eb858d72b7923660405160405180910390a2600080600087815260200190815260200160002060030160006101000a81548160ff0219169083151502179055505b5b5050505050565b600083600073ffffffffffffffffffffffffffffffffffffffff168173ffffffffffffffffffffffffffffffffffffffff1614151515612c2b576040517f08c379a00000000000000000000000000000000000000000000000000000000081526004018080602001828103825260158152602001807f4552524f525f494e56414c49445f41444452455353000000000000000000000081525060200191505060405180910390fd5b60055491506080604051908101604052808673ffffffffffffffffffffffffffffffffffffffff1681526020018581526020018481526020016000151581525060008084815260200190815260200160002060008201518160000160006101000a81548173ffffffffffffffffffffffffffffffffffffffff021916908373ffffffffffffffffffffffffffffffffffffffff160217905550602082015181600101556040820151816002019080519060200190612cea929190612da7565b5060608201518160030160006101000a81548160ff0219169083151502179055509050506001600560008282540192505081905550817fc0ba8fe4b176c1714197d43b9cc6bcf797a4a7461c5fe8d0ef6e184ae7601e5160405160405180910390a2509392505050565b6000806040516020840160008287838a8c6187965a03f19250505080915050949350505050565b815481835581811115612da257818360005260206000209182019101612da19190612e27565b5b505050565b828054600181600116156101000203166002900490600052602060002090601f016020900481019282601f10612de857805160ff1916838001178555612e16565b82800160010185558215612e16579182015b82811115612e15578251825591602001919060010190612dfa565b5b509050612e239190612e27565b5090565b612e4991905b80821115612e45576000816000905550600101612e2d565b5090565b905600a165627a7a723058203a38f14b3b5d5768929a827884ef65aaa4ef36c3333f51934a6f32ba57d49bd90029",
  "source": "pragma solidity 0.4.24;\n\n\n/**\n * @title Multisignature wallet - Allows multiple parties to agree on transactions before execution.\n */\ncontract MultiSigWallet {\n\n    uint constant public MAX_OWNER_COUNT = 50;\n\n    event Confirmation(address indexed sender, uint indexed transactionId);\n    event Revocation(address indexed sender, uint indexed transactionId);\n    event Submission(uint indexed transactionId);\n    event Execution(uint indexed transactionId);\n    event ExecutionFailure(uint indexed transactionId);\n    event Deposit(address indexed sender, uint value);\n    event Withdraw(address indexed sender, uint value);\n    event OwnerAddition(address indexed owner);\n    event OwnerRemoval(address indexed owner);\n    event RequirementChange(uint required);\n\n    mapping(uint => Transaction) public transactions;\n    mapping(uint => mapping(address => bool)) public confirmations;\n    mapping(address => bool) public isOwner;\n    address[] public owners;\n    uint public required;\n    uint public transactionCount;\n\n    struct Transaction {\n        address destination;\n        uint value;\n        bytes data;\n        bool executed;\n    }\n\n    /**\n     * @dev Throws if sender is not a contract address itself\n     */\n    modifier onlyWallet() {\n        require(msg.sender == address(this), \"ERROR_NOT_A_WALLET\");\n        _;\n    }\n\n    /**\n     * @dev Throws if owner exists\n     */\n    modifier ownerDoesNotExist(address owner) {\n        require(!isOwner[owner], \"ERROR_OWNER_EXISTS\");\n        _;\n    }\n\n    /**\n     * @dev Throws if owner not exists\n     */\n    modifier ownerExists(address owner) {\n        require(isOwner[owner], \"ERROR_OWNER_NOT_EXISTS\");\n        _;\n    }\n\n    /**\n     * @dev Throws if transaction not existed\n     */\n    modifier transactionExists(uint transactionId) {\n        require(transactions[transactionId].destination != address(0), \"ERROR_TRANSACTION_NOT_EXISTS\");\n        _;\n    }\n\n    /**\n     * @dev Throws if transaction had been confirmed\n     */\n    modifier confirmed(uint transactionId, address owner) {\n        require(confirmations[transactionId][owner], \"ERROR_TRANSACTION_ALREADY_CONFIRMED\");\n        _;\n    }\n\n    /**\n     * @dev Throws if transaction had not been confirmed\n     */ \n    modifier notConfirmed(uint transactionId, address owner) {\n        require(!confirmations[transactionId][owner], \"ERROR_TRANSACTION_NOT_CONFIRMED\");\n        _;\n    }\n\n    /**\n     * @dev Throws if transaction has not been executed\n     */\n    modifier notExecuted(uint transactionId) {\n        require(!transactions[transactionId].executed, \"ERROR_TRANSACTION_NOT_EXECUTED\");\n        _;\n    }\n\n    /**\n     * @dev Throws if address is invalid\n     */\n    modifier notNull(address _address) {\n        require(_address != address(0), \"ERROR_INVALID_ADDRESS\");\n        _;\n    }\n\n    /**\n     * @dev Throws if not valid requirement\n     * @param ownerCount Owner count\n     * @param _required Number of required confirmations\n     * @notice Throws if ownerCount not fits in MAX_OWNER_COUNT\n     */\n    modifier validRequirement(uint ownerCount, uint _required) {\n        require(ownerCount <= MAX_OWNER_COUNT && \n            _required <= ownerCount && \n            _required != 0 &&\n            ownerCount != 0, \"ERROR_INVALID_REQUIRED_CONFIRMATIONS_NUMBER\");\n        _;\n    }\n\n    /**\n     * @dev Fallback function allows to deposit ether.\n     */\n    function () external payable {\n\n        if (msg.value > 0) {\n            emit Deposit(msg.sender, msg.value);\n        }            \n    }\n\n    /**\n     * @dev Get current contract balance\n     */\n    function walletBalance() public view returns (uint256) {\n        return address(this).balance;\n    }\n\n    /**\n     * @dev Withdraw contract balance\n     * @param to Funds recipient address\n     * @notice Transaction has to be sent by wallet.\n     */\n    function withdraw(address to) public \n    onlyWallet \n    notNull(to) {\n        emit Withdraw(to, address(this).balance);\n        to.transfer(address(this).balance);\n    }\n\n    /**\n     * @dev Contract constructor sets initial owners and required number of confirmations.\n     * @param _owners List of initial owners.\n     * @param _required Number of required confirmations.\n     */\n    constructor(address[] memory _owners, uint _required) public validRequirement(_owners.length, _required) {\n\n        for (uint i = 0; i < _owners.length; i++) {\n            require(!isOwner[_owners[i]] && _owners[i] != address(0), \"ERROR_OWNER_EXISTS\");\n            isOwner[_owners[i]] = true;\n        }\n\n        owners = _owners;\n        required = _required;\n    }\n\n    /**\n     * @dev Allows to add a new owner. \n     * @param owner Address of new owner.\n     * @notice Transaction has to be sent by wallet.\n     */\n    function addOwner(address owner) public \n    onlyWallet \n    ownerDoesNotExist(owner) \n    notNull(owner) \n    validRequirement(owners.length + 1, required) {\n        isOwner[owner] = true;\n        owners.push(owner);\n        emit OwnerAddition(owner);\n    }\n\n    /**\n     * @dev Allows to remove an owner. \n     * @param owner Address of owner.\n     * @notice Transaction has to be sent by wallet.\n     */\n    function removeOwner(address owner) public onlyWallet ownerExists(owner) {\n        isOwner[owner] = false;\n\n        for (uint i = 0; i < owners.length - 1; i++) {\n\n            if (owners[i] == owner) {\n                owners[i] = owners[owners.length - 1];\n                break;\n            }\n        }\n            \n        owners.length -= 1;\n\n        if (required > owners.length) {\n            changeRequirement(owners.length);\n        }\n            \n        emit OwnerRemoval(owner);\n    }\n\n    /**\n     * @dev Allows to replace an owner with a new owner.\n     * @param owner Address of owner to be replaced.\n     * @param newOwner Address of new owner.\n     * @notice Transaction has to be sent by wallet.\n     */\n    function replaceOwner(address owner, address newOwner) public \n    onlyWallet \n    ownerExists(owner)\n    ownerDoesNotExist(newOwner) {\n\n        for (uint i = 0; i < owners.length; i++) {\n\n            if (owners[i] == owner) {\n                owners[i] = newOwner;\n                break;\n            }\n        }\n            \n        isOwner[owner] = false;\n        isOwner[newOwner] = true;\n        emit OwnerRemoval(owner);\n        emit OwnerAddition(newOwner);\n    }\n\n    /**\n     * @dev Allows to change the number of required confirmations. Transaction has to be sent by wallet.\n     * @param _required Number of required confirmations.\n     */\n    function changeRequirement(uint _required) public \n    onlyWallet\n    validRequirement(owners.length, _required) {\n\n        required = _required;\n        emit RequirementChange(_required);\n    }\n\n    /**\n     * @dev Allows an owner to submit and confirm a transaction.\n     * @param destination Transaction target address.\n     * @param value Transaction ether value.\n     * @param data Transaction data payload.\n     * @return Returns transaction ID.\n     */\n    function submitTransaction(\n        address destination, \n        uint value, \n        bytes memory data\n    ) public\n    returns(uint transactionId) {\n        transactionId = addTransaction(destination, value, data);\n        confirmTransaction(transactionId);\n    }\n\n    /**\n     * @dev Allows an owner to confirm a transaction.\n     * @param transactionId Transaction ID.\n     */\n    function confirmTransaction(uint transactionId) public\n    ownerExists(msg.sender)\n    transactionExists(transactionId)\n    notConfirmed(transactionId, msg.sender) {\n        confirmations[transactionId][msg.sender] = true;\n        emit Confirmation(msg.sender, transactionId);\n        executeTransaction(transactionId);\n    }\n\n    /**\n     * @dev Allows an owner to revoke a confirmation for a transaction.\n     * @param transactionId Transaction ID.\n     */\n    function revokeConfirmation(uint transactionId) public\n    ownerExists(msg.sender)\n    confirmed(transactionId, msg.sender)\n    notExecuted(transactionId) {\n\n        confirmations[transactionId][msg.sender] = false;\n        emit Revocation(msg.sender, transactionId);\n    }\n\n    /**\n     * @dev Allows anyone to execute a confirmed transaction.\n     * @param transactionId Transaction ID.\n     */\n    function executeTransaction(uint transactionId) public\n    ownerExists(msg.sender)\n    confirmed(transactionId, msg.sender)\n    notExecuted(transactionId) {\n\n        if (isConfirmed(transactionId)) {\n\n            transactions[transactionId].executed = true; \n\n            if (external_call(\n                transactions[transactionId].destination, \n                transactions[transactionId].value, \n                transactions[transactionId].data.length, \n                transactions[transactionId].data\n            )) {\n                emit Execution(transactionId);\n            } else {\n                emit ExecutionFailure(transactionId);\n                transactions[transactionId].executed = false;\n            }\n        }\n    }\n\n    /**\n     * @notice call has been separated into its own function in order to take advantage\n     * of the Solidity's code generator to produce a loop that copies tx.data into memory.\n     */\n    function external_call(\n        address destination, \n        uint value, \n        uint dataLength, \n        bytes memory data\n    ) private returns(bool) {\n        bool result;\n\n        assembly {\n            let x := mload(0x40) // \"Allocate\" memory for output (0x40 is where \"free memory\" pointer is stored by convention)\n            let d := add(data, 32) // First 32 bytes are the padded length of data, so exclude that\n            result := call(\n                sub(gas, 34710), // 34710 is the value that solidity is currently emitting\n                // It includes callGas (700) + callVeryLow (3, to pay for SUB) + callValueTransferGas (9000) +\n                // callNewAccountGas (25000, in case the destination address does not exist and needs creating)\n                destination,\n                value,\n                d,\n                dataLength, // Size of the input (in bytes) - this is what fixes the padding problem\n                x,\n                0 // Output is ignored, therefore the output size is zero\n            )\n        }\n\n        return result;\n    }\n\n    /**\n     * @dev Returns the confirmation status of a transaction.\n     * @param transactionId Transaction ID.\n     * @return Confirmation status.\n     */\n    function isConfirmed(uint transactionId) public view returns(bool) {\n        uint count = 0;\n\n        for (uint i = 0; i < owners.length; i++) {\n            \n            if (confirmations[transactionId][owners[i]]) {\n                count += 1;\n            }\n                \n            if (count == required) {\n                return true;\n            }                \n        }\n\n        return false;\n    }\n\n    /**\n     * @dev Adds a new transaction to the transaction mapping, if transaction does not exist yet.\n     * @param destination Transaction target address.\n     * @param value Transaction ether value.\n     * @param data Transaction data payload.\n     * @return Returns transaction ID.\n     */\n    function addTransaction(\n        address destination, \n        uint value, \n        bytes memory data\n    ) internal notNull(destination) returns(uint transactionId) {\n        transactionId = transactionCount;\n        transactions[transactionId] = Transaction({\n            destination: destination,\n            value: value,\n            data: data,\n            executed: false\n        });\n        transactionCount += 1;\n        emit Submission(transactionId);\n    }\n\n    /**\n     * @dev Returns number of confirmations of a transaction.\n     * @param transactionId Transaction ID.\n     * @return Number of confirmations.\n     */\n    function getConfirmationCount(uint transactionId) public view returns(uint count) {\n        \n        for (uint i = 0; i < owners.length; i++) {\n\n            if (confirmations[transactionId][owners[i]]) {\n                count += 1;\n            }\n        }                            \n    }\n\n    /**\n     * @dev Returns total number of transactions after filers are applied.\n     * @param pending Include pending transactions.\n     * @param executed Include executed transactions.\n     * @return Total number of transactions after filters are applied.\n     */\n    function getTransactionCount(bool pending, bool executed) public view returns(uint count) {\n\n        for (uint i = 0; i < transactionCount; i++) {\n\n            if (pending && !transactions[i].executed ||\n                executed && transactions[i].executed) {\n\n                count += 1;\n            }\n        }               \n    }\n\n    /**\n     * @dev Returns list of owners.\n     * @return List of owner addresses.\n     */\n    function getOwners() public view returns(address[] memory) {\n        return owners;\n    }\n\n    /**\n     * @dev Returns array with owner addresses, which confirmed transaction.\n     * @param transactionId Transaction ID.\n     * @return Returns array of owner addresses.\n     */\n    function getConfirmations(uint transactionId) public view returns(address[] memory _confirmations) {\n        address[] memory confirmationsTemp = new address[](owners.length);\n        uint count = 0;\n        uint i;\n\n        for (i = 0; i < owners.length; i++) {\n            \n            if (confirmations[transactionId][owners[i]]) {\n                confirmationsTemp[count] = owners[i];\n                count += 1;\n            }\n        }\n            \n        _confirmations = new address[](count);\n\n        for (i = 0; i < count; i++) {\n            _confirmations[i] = confirmationsTemp[i];\n        }            \n    }\n\n    /**\n     * @dev Returns list of transaction IDs in defined range.\n     * @param from Index start position of transaction array.\n     * @param to Index end position of transaction array.\n     * @param pending Include pending transactions.\n     * @param executed Include executed transactions.\n     * @return Returns array of transaction IDs.\n     */\n    function getTransactionIds(\n        uint from, \n        uint to, \n        bool pending, \n        bool executed\n    ) public view returns(uint[] memory _transactionIds) {\n        uint[] memory transactionIdsTemp = new uint[](transactionCount);\n        uint count = 0;\n        uint i;\n\n        for (i = 0; i < transactionCount; i++) {\n            \n            if (pending && !transactions[i].executed ||\n                executed && transactions[i].executed) {\n                transactionIdsTemp[count] = i;\n                count += 1;\n            }\n        }\n            \n        _transactionIds = new uint[](to - from);\n\n        for (i = from; i < to; i++) {\n            _transactionIds[i - from] = transactionIdsTemp[i];\n        }            \n    }\n}\n",
  "sourcePath": "/home/kostysh/dev/pantoken/contracts/MultiSigWallet.sol",
  "compiler": {
    "name": "solc",
    "version": "0.4.24+commit.e67f0147.Emscripten.clang"
  },
  "schemaVersion": "2.0.1",
  "updatedAt": "2018-12-11T20:04:12.529Z"
}