{
  "contractName": "OwnedUpgradeabilityProxy",
  "abi": [
    {
      "constant": true,
      "inputs": [],
      "name": "implementation",
      "outputs": [
        {
          "name": "impl",
          "type": "address"
        }
      ],
      "payable": false,
      "stateMutability": "view",
      "type": "function"
    },
    {
      "inputs": [],
      "payable": false,
      "stateMutability": "nonpayable",
      "type": "constructor"
    },
    {
      "payable": true,
      "stateMutability": "payable",
      "type": "fallback"
    },
    {
      "anonymous": false,
      "inputs": [
        {
          "indexed": false,
          "name": "previousOwner",
          "type": "address"
        },
        {
          "indexed": false,
          "name": "newOwner",
          "type": "address"
        }
      ],
      "name": "ProxyOwnershipTransferred",
      "type": "event"
    },
    {
      "anonymous": false,
      "inputs": [
        {
          "indexed": true,
          "name": "implementation",
          "type": "address"
        }
      ],
      "name": "Upgraded",
      "type": "event"
    },
    {
      "constant": true,
      "inputs": [],
      "name": "proxyOwner",
      "outputs": [
        {
          "name": "owner",
          "type": "address"
        }
      ],
      "payable": false,
      "stateMutability": "view",
      "type": "function"
    },
    {
      "constant": false,
      "inputs": [
        {
          "name": "newOwner",
          "type": "address"
        }
      ],
      "name": "transferProxyOwnership",
      "outputs": [],
      "payable": false,
      "stateMutability": "nonpayable",
      "type": "function"
    },
    {
      "constant": false,
      "inputs": [
        {
          "name": "implementation",
          "type": "address"
        }
      ],
      "name": "upgradeTo",
      "outputs": [],
      "payable": false,
      "stateMutability": "nonpayable",
      "type": "function"
    },
    {
      "constant": false,
      "inputs": [
        {
          "name": "implementation",
          "type": "address"
        },
        {
          "name": "data",
          "type": "bytes"
        }
      ],
      "name": "upgradeToAndCall",
      "outputs": [],
      "payable": true,
      "stateMutability": "payable",
      "type": "function"
    }
  ],
  "bytecode": "0x608060405234801561001057600080fd5b506100293361002e640100000000026401000000009004565b61006f565b600060405180807f70726f78792e6f776e6572000000000000000000000000000000000000000000815250600b019050604051809103902090508181555050565b610a418061007e6000396000f30060806040526004361061006d576000357c0100000000000000000000000000000000000000000000000000000000900463ffffffff168063025313a2146101455780633659cfe61461019c5780634f1ef286146101df5780635c60da1b1461025b578063f1739cae146102b2575b60006100776102f5565b9050600073ffffffffffffffffffffffffffffffffffffffff168173ffffffffffffffffffffffffffffffffffffffff161415151561011e576040517f08c379a00000000000000000000000000000000000000000000000000000000081526004018080602001828103825260158152602001807f4552524f525f494e56414c49445f41444452455353000000000000000000000081525060200191505060405180910390fd5b60405136600082376000803683855af43d806000843e8160008114610141578184f35b8184fd5b34801561015157600080fd5b5061015a610338565b604051808273ffffffffffffffffffffffffffffffffffffffff1673ffffffffffffffffffffffffffffffffffffffff16815260200191505060405180910390f35b3480156101a857600080fd5b506101dd600480360381019080803573ffffffffffffffffffffffffffffffffffffffff16906020019092919050505061037b565b005b610259600480360381019080803573ffffffffffffffffffffffffffffffffffffffff169060200190929190803590602001908201803590602001908080601f0160208091040260200160405190810160405280939291908181526020018383808284378201915050505050509192919290505050610431565b005b34801561026757600080fd5b506102706102f5565b604051808273ffffffffffffffffffffffffffffffffffffffff1673ffffffffffffffffffffffffffffffffffffffff16815260200191505060405180910390f35b3480156102be57600080fd5b506102f3600480360381019080803573ffffffffffffffffffffffffffffffffffffffff1690602001909291905050506105e4565b005b60008060405180807f70726f78792e696d706c656d656e746174696f6e000000000000000000000000815250601401905060405180910390209050805491505090565b60008060405180807f70726f78792e6f776e6572000000000000000000000000000000000000000000815250600b01905060405180910390209050805491505090565b610383610338565b73ffffffffffffffffffffffffffffffffffffffff163373ffffffffffffffffffffffffffffffffffffffff16141515610425576040517f08c379a00000000000000000000000000000000000000000000000000000000081526004018080602001828103825260158152602001807f4552524f525f4e4f545f50524f58595f4f574e4552000000000000000000000081525060200191505060405180910390fd5b61042e816107dd565b50565b610439610338565b73ffffffffffffffffffffffffffffffffffffffff163373ffffffffffffffffffffffffffffffffffffffff161415156104db576040517f08c379a00000000000000000000000000000000000000000000000000000000081526004018080602001828103825260158152602001807f4552524f525f4e4f545f50524f58595f4f574e4552000000000000000000000081525060200191505060405180910390fd5b6104e48261037b565b3073ffffffffffffffffffffffffffffffffffffffff16348260405180828051906020019080838360005b8381101561052a57808201518184015260208101905061050f565b50505050905090810190601f1680156105575780820380516001836020036101000a031916815260200191505b5091505060006040518083038185875af19250505015156105e0576040517f08c379a00000000000000000000000000000000000000000000000000000000081526004018080602001828103825260178152602001807f4552524f525f554e5355434345535346554c5f43414c4c00000000000000000081525060200191505060405180910390fd5b5050565b6105ec610338565b73ffffffffffffffffffffffffffffffffffffffff163373ffffffffffffffffffffffffffffffffffffffff1614151561068e576040517f08c379a00000000000000000000000000000000000000000000000000000000081526004018080602001828103825260158152602001807f4552524f525f4e4f545f50524f58595f4f574e4552000000000000000000000081525060200191505060405180910390fd5b600073ffffffffffffffffffffffffffffffffffffffff168173ffffffffffffffffffffffffffffffffffffffff1614151515610733576040517f08c379a00000000000000000000000000000000000000000000000000000000081526004018080602001828103825260158152602001807f4552524f525f494e56414c49445f41444452455353000000000000000000000081525060200191505060405180910390fd5b7f5a3e66efaa1e445ebd894728a69d6959842ea1e97bd79b892797106e270efcd961075c610338565b82604051808373ffffffffffffffffffffffffffffffffffffffff1673ffffffffffffffffffffffffffffffffffffffff1681526020018273ffffffffffffffffffffffffffffffffffffffff1673ffffffffffffffffffffffffffffffffffffffff1681526020019250505060405180910390a16107da81610980565b50565b60006107e8826109c1565b1515610882576040517f08c379a00000000000000000000000000000000000000000000000000000000081526004018080602001828103825260248152602001807f4552524f525f494e56414c49445f494d504c454d454e544154494f4e5f41444481526020017f524553530000000000000000000000000000000000000000000000000000000081525060400191505060405180910390fd5b61088a6102f5565b90508173ffffffffffffffffffffffffffffffffffffffff168173ffffffffffffffffffffffffffffffffffffffff1614151515610930576040517f08c379a00000000000000000000000000000000000000000000000000000000081526004018080602001828103825260198152602001807f4552524f525f53414d455f494d504c454d454e544154494f4e0000000000000081525060200191505060405180910390fd5b610939826109d4565b8173ffffffffffffffffffffffffffffffffffffffff167fbc7cd75a20ee27fd9adebab32041f755214dbc6bffa90cc0225b39da2e5c2d3b60405160405180910390a25050565b600060405180807f70726f78792e6f776e6572000000000000000000000000000000000000000000815250600b019050604051809103902090508181555050565b600080823b905060008111915050919050565b600060405180807f70726f78792e696d706c656d656e746174696f6e00000000000000000000000081525060140190506040518091039020905081815550505600a165627a7a7230582011d4bb2ca8e37c17797fda57a0b2b1a3190fd624e7db1de085f20cfc5ec3ef0f0029",
  "source": "pragma solidity 0.4.24;\n\nimport \"./UpgradeabilityProxy.sol\";\n\n\n/**\n * @title OwnedUpgradeabilityProxy\n * @dev This contract combines an upgradeability proxy with basic authorization control functionalities\n */\ncontract OwnedUpgradeabilityProxy is UpgradeabilityProxy {\n\n    /**\n     * @dev Event to show ownership has been transferred\n     * @param previousOwner representing the address of the previous owner\n     * @param newOwner representing the address of the new owner\n     */\n    event ProxyOwnershipTransferred(address previousOwner, address newOwner);\n\n    // Storage position of the owner of the contract\n    bytes32 private constant PROXY_OWNER_POSITION = keccak256(\"proxy.owner\");\n\n    /**\n     * @dev the constructor sets the original owner of the contract to the sender account.\n     */\n    constructor() public {\n        setUpgradeabilityOwner(msg.sender);\n    }\n\n    /**\n     * @dev Throws if called by any account other than the owner.\n     */\n    modifier onlyProxyOwner() {\n        require(msg.sender == proxyOwner(), \"ERROR_NOT_PROXY_OWNER\");\n        _;\n    }\n\n    /**\n     * @dev Tells the address of the owner\n     * @return the address of the owner\n     */\n    function proxyOwner() public view returns(address owner) {\n        bytes32 position = PROXY_OWNER_POSITION;\n        assembly {\n            owner := sload(position)\n        }\n    }\n\n    /**\n     * @dev Allows the current owner to transfer control of the contract to a newOwner.\n     * @param newOwner The address to transfer ownership to.\n     */\n    function transferProxyOwnership(address newOwner) public onlyProxyOwner {\n        require(newOwner != address(0), \"ERROR_INVALID_ADDRESS\");\n        emit ProxyOwnershipTransferred(proxyOwner(), newOwner);\n        setUpgradeabilityOwner(newOwner);\n    }\n\n    /**\n     * @dev Allows the proxy owner to upgrade the current version of the proxy.\n     * @param implementation representing the address of the new implementation to be set.\n     */\n    function upgradeTo(address implementation) public onlyProxyOwner {\n        _upgradeTo(implementation);\n    }\n\n    /**\n     * @dev Allows the proxy owner to upgrade the current version of the proxy and call the new implementation\n     * to initialize whatever is needed through a low level call.\n     * @param implementation representing the address of the new implementation to be set.\n     * @param data represents the msg.data to bet sent in the low level call. This parameter may include the function\n     * signature of the implementation to be called with the needed payload\n     */\n    function upgradeToAndCall(address implementation, bytes data) public payable onlyProxyOwner {\n        upgradeTo(implementation);\n        require(address(this).call.value(msg.value)(data), \"ERROR_UNSUCCESSFUL_CALL\");\n    }\n\n    /**\n     * @dev Sets the address of the owner\n     */\n    function setUpgradeabilityOwner(address newProxyOwner) internal {\n        bytes32 position = PROXY_OWNER_POSITION;\n        assembly {\n            sstore(position, newProxyOwner)\n        }\n    }\n}\n",
  "sourcePath": "/home/kostysh/dev/pantoken/contracts/upgradeability/OwnedUpgradeabilityStorage.sol",
  "compiler": {
    "name": "solc",
    "version": "0.4.24+commit.e67f0147.Emscripten.clang"
  },
  "schemaVersion": "2.0.1",
  "updatedAt": "2018-12-14T02:52:58.168Z"
}