{
  "contractName": "TestFeatureInitializable",
  "abi": [
    {
      "constant": true,
      "inputs": [
        {
          "name": "feature",
          "type": "bytes32"
        }
      ],
      "name": "isFeatureInitialized",
      "outputs": [
        {
          "name": "",
          "type": "bool"
        }
      ],
      "payable": false,
      "stateMutability": "view",
      "type": "function"
    },
    {
      "anonymous": false,
      "inputs": [
        {
          "indexed": true,
          "name": "feature",
          "type": "bytes32"
        },
        {
          "indexed": true,
          "name": "initializer",
          "type": "address"
        }
      ],
      "name": "FeatureInitialized",
      "type": "event"
    },
    {
      "constant": false,
      "inputs": [
        {
          "name": "feature",
          "type": "bytes32"
        }
      ],
      "name": "setInitialised",
      "outputs": [],
      "payable": false,
      "stateMutability": "nonpayable",
      "type": "function"
    },
    {
      "constant": true,
      "inputs": [
        {
          "name": "feature",
          "type": "bytes32"
        }
      ],
      "name": "isInitialised",
      "outputs": [
        {
          "name": "",
          "type": "bool"
        }
      ],
      "payable": false,
      "stateMutability": "view",
      "type": "function"
    },
    {
      "constant": true,
      "inputs": [
        {
          "name": "feature",
          "type": "bytes32"
        }
      ],
      "name": "testOnlyInitialized",
      "outputs": [
        {
          "name": "",
          "type": "bool"
        }
      ],
      "payable": false,
      "stateMutability": "view",
      "type": "function"
    },
    {
      "constant": true,
      "inputs": [
        {
          "name": "feature",
          "type": "bytes32"
        }
      ],
      "name": "testNotInitialized",
      "outputs": [
        {
          "name": "",
          "type": "bool"
        }
      ],
      "payable": false,
      "stateMutability": "view",
      "type": "function"
    }
  ],
  "bytecode": "0x608060405234801561001057600080fd5b50610479806100206000396000f30060806040526004361061006d576000357c0100000000000000000000000000000000000000000000000000000000900463ffffffff1680631bb0eb781461007257806334d70127146100bb5780634d39943014610104578063bf3459ae1461014d578063c2ad7cdd14610196575b600080fd5b34801561007e57600080fd5b506100a160048036038101908080356000191690602001909291905050506101c7565b604051808215151515815260200191505060405180910390f35b3480156100c757600080fd5b506100ea60048036038101908080356000191690602001909291905050506101f8565b604051808215151515815260200191505060405180910390f35b34801561011057600080fd5b506101336004803603810190808035600019169060200190929190505050610282565b604051808215151515815260200191505060405180910390f35b34801561015957600080fd5b5061017c6004803603810190808035600019169060200190929190505050610294565b604051808215151515815260200191505060405180910390f35b3480156101a257600080fd5b506101c56004803603810190808035600019169060200190929190505050610345565b005b6000806000836000191660001916815260200190815260200160002060009054906101000a900460ff169050919050565b600081610204816101c7565b1515610278576040517f08c379a000000000000000000000000000000000000000000000000000000000815260040180806020018281038252601d8152602001807f4552524f525f464541545552455f4e4f545f494e495449414c495a454400000081525060200191505060405180910390fd5b6001915050919050565b600061028d826101c7565b9050919050565b6000816102a0816101c7565b15151561033b576040517f08c379a00000000000000000000000000000000000000000000000000000000081526004018080602001828103825260218152602001807f4552524f525f464541545552455f414c52454144595f494e495449414c495a4581526020017f440000000000000000000000000000000000000000000000000000000000000081525060400191505060405180910390fd5b6001915050919050565b61034e81610351565b50565b61035a816101c7565b1515156103cf576040517f08c379a00000000000000000000000000000000000000000000000000000000081526004018080602001828103825260198152602001807f4552524f525f414c52454144595f494e495449414c495a45440000000000000081525060200191505060405180910390fd5b6001600080836000191660001916815260200190815260200160002060006101000a81548160ff0219169083151502179055503373ffffffffffffffffffffffffffffffffffffffff1681600019167facd68f51866a85df43abac334afdbc971118df9964a57815ea585155a8fd89eb60405160405180910390a3505600a165627a7a723058203a31901b9f59cb7f93334e792116eb3a54af13b972b9a7175e191a6e3deed6bb0029",
  "source": "pragma solidity 0.4.24;\n\nimport \"../lifestyle/FeatureInitializable.sol\";\n\n/**\n * @title TestFeatureInitializable\n * @dev Testing interface for FeatureInitializable contract\n */\ncontract TestFeatureInitializable is FeatureInitializable {\n\n    function setInitialised(bytes32 feature) public {\n        _setFeatureInitialized(feature);\n    }\n\n    function isInitialised(bytes32 feature) public view returns (bool) {\n        return bool(isFeatureInitialized(feature));\n    }\n\n    function testOnlyInitialized(bytes32 feature) public view onlyInitializedFeature(feature) returns (bool) {\n        return true;\n    }\n\n    function testNotInitialized(bytes32 feature) public view notInitializedFeature(feature) returns (bool) {\n        return true;\n    }\n}\n",
  "sourcePath": "/home/kostysh/dev/pantoken/contracts/test/TestFeatureInitialized.sol",
  "compiler": {
    "name": "solc",
    "version": "0.4.24+commit.e67f0147.Emscripten.clang"
  },
  "schemaVersion": "2.0.1",
  "updatedAt": "2018-12-13T05:30:40.518Z"
}